:020000040800F2
:10000000B0060020D9020008DD040008B50400088D
:10001000D90400088504000831060008000000002B
:100020000000000000000000000000005105000872
:10003000A9040008000000004D050008550500084F
:10004000F3020008F3020008F3020008F3020008BC
:10005000F3020008F3020008F3020008F3020008AC
:10006000F3020008AD040008F3020008F3020008E0
:10007000F3020008F3020008F3020008F30200088C
:10008000F3020008F3020008F3020008F30200087C
:10009000F3020008F3020008F3020008F30200086C
:1000A000F302000815060008F3020008F302000836
:1000B000F3020008F3020008F3020008F30200084C
:1000C000F3020008C9040008B9040008F30200089C
:1000D000F3020008F3020008F3020008F30200082C
:1000E000F3020008F3020008F3020008F30200081C
:1000F000F3020008F3020008F3020008F30200080C
:10010000F3020008F3020008F3020008F3020008FB
:10011000F3020008F3020008F3020008F3020008EB
:100120008904000899040008F3020008F30200089B
:10013000F3020008F3020008F3020008F3020008CB
:10014000F3020008F3020008F3020008F3020008BB
:10015000F3020008F302000800000000F3020008A8
:10016000F3020008F3020008000000000000000095
:10017000F3020008F3020008F30200080000000088
:1001800000000000F3020008F3020008F302000878
:10019000F302000800000000000000000000000062
:1001A000000000000000000000000000F302000852
:1001B000F302000800000000F30200080000000045
:1001C000000000000000000000000000000000002F
:1001D0000000000000000000F3020008F302000825
:1001E000F3020008F3020008F3020008F30200081B
:1001F000F3020008F3020008F3020008F30200080B
:10020000F3020008F3020008F302000800F002F80D
:1002100000F052F814A696E8000CB244B344DA4554
:1002200001D100F049F8BAE80F000FA696E83000B7
:10023000A5EB040504EB0607AAEB0704A7F10107E9
:100240004FEA15154FEA3414A4F10104AC4201D36E
:1002500000F032F813F0010F18BFFB1A43F001034E
:1002600000F001F8DBE71847401D0000601D0000AA
:10027000103A24BF78C878C1FAD8520724BF30C8D2
:1002800030C144BF04680C60704700007047000034
:100290000023002400250026103A28BF78C1FBD88F
:1002A000520728BF30C148BF0B6070471FB501F02F
:1002B00062FE1FBD10B510BD00F0A9F81146FFF792
:1002C000F5FF01F02FFC00F0C7F803B4FFF7F2FFD1
:1002D00003BC00F0CFF800000948804709480047F8
:1002E000FEE7FEE7FEE7FEE7FEE7FEE7FEE7FEE7E6
:1002F000FEE7FEE704480549054A064B7047000043
:10030000590500080D020008B0000020B0060020CA
:10031000B0020020B002002053EA020C00F0698015
:100320002DE9F04B4FF00006002B1FBFB3FA83F509
:1003300003FA05F424FA05F65E4012BF1643B2FA3A
:1003400082F502FA05F4C5F120051EBF22FA05FC6C
:1003500044EA0C04203556EA044C4FEA144418BF12
:10036000641C4FF000084FF00009904271EB030C41
:1003700039D3002919BFB1FA81F701FA07F6B0FAAB
:1003800080F700FA07F6C7F120071EBF20FA07FC26
:1003900046EA0C062037B6FBF4FCA7EB0507103F36
:1003A00007F01F0BCBF120062CFA06F60CFA0BFB1C
:1003B00044BFB3460026202FA4BF5E464FF0000B7B
:1003C0005BEA060C08BF4FF0010B19EB0B0948EB79
:1003D0000608ABFB027C06FB02CC0BFB03CCC01B6C
:1003E00071EB0C01C1E70B46024641464846BDE8A9
:1003F000F08B13B5084318BF4FF0FF300146AFF341
:100400000080BDE81C4070477047704770477546D4
:1004100000F02CF8AE4605006946534620F0070070
:10042000854618B020B5FFF765FFBDE820404FF0C6
:1004300000064FF000074FF000084FF0000BAC46ED
:10044000ACE8C009ACE8C009ACE8C009ACE8C00938
:1004500021F007018D46704710B50446AFF30080C8
:100460002046BDE81040FFF730BF0000004870474D
:100470000800002001491820ABBEFEE7260002005C
:1004800070470000FFE7FEE780B540F27400C2F25B
:10049000000000F05BFD80BD80B540F27400C2F248
:1004A000000000F049FD80BD7047000080B501F0FC
:1004B000DBFB80BDFFE7FEE780B540F27400C2F2CF
:1004C000000000F03BFF80BD80B540F27400C2F236
:1004D000000000F0C9FF80BDFFE7FEE770470000A5
:1004E00088B0079006910592079800F007000490E5
:1004F0000498C0F10700052803D3FFE7042001900A
:1005000004E00498C0F107000190FFE70198039010
:1005100004980430062803D8FFE70020009003E089
:10052000049803380090FFE700980290069803991A
:10053000012202FA01F101390840029B9840059915
:100540009A40013A1140084308B0704770470000D4
:1005500070470000704700004EF68851CEF200014F
:10056000086840F47000086043F60001C4F202011C
:10057000086840F001000860FFE743F60000C4F29D
:1005800002000068C0F34000012801D0FFE7F4E753
:1005900043F60801C4F20201086820F00300086075
:1005A000FFE743F60800C4F20200006880088007F5
:1005B00008B1FFE7F5E743F60001C4F2020108685D
:1005C0004FF6FF72CFF6F2621040086043F6080162
:1005D000C4F202010020086043F60402C4F20202E1
:1005E00043F20201C0F20301116043F6A001C4F21C
:1005F0000201086043F60C01C4F202014FF41F002F
:1006000008604EF60851CEF200014FF0006008601D
:100610007047000080B540F26800C2F2000001217E
:1006200001700020C4F2010001F07EFC80BD0000DA
:10063000FFE7FEE781B08DF803009DF90300002875
:100640000ED4FFE79DF9031001F01F020120904036
:100650004A094EF20011CEF2000141F82200FFE7F4
:1006600001B070474EF60C50CEF200000068C0F3A7
:100670000220704782B08DF8070000919DF90700B5
:1006800000280AD4FFE7009800019DF907104EF2F8
:100690000042CEF2000288540BE0009800019DF861
:1006A000071001F00F014EF61452CEF200028854EA
:1006B000FFE702B07047000083B00290029800F09C
:1006C000070000904EF60C51CEF200010868019030
:1006D00001984FF6FF02104001900198009A40EAFD
:1006E00002200022C0F2FA521043019001980860E3
:1006F00003B0704781B08DF803009DF8032043F6E6
:100700000801C4F20201086802F00F0220F0F000B4
:1007100040EA0210086001B07047000081B08DF817
:1007200003009DF8032043F60801C4F202010868A3
:1007300002F0070220F4E05040EA8220086001B095
:100740007047000081B08DF803009DF8032043F648
:100750000801C4F20201086802F0070220F46040B8
:1007600040EA4230086001B07047000081B08DF867
:1007700003009DF80300012809D1FFE743F6A40117
:10078000C4F20201086840F03000086008E043F657
:10079000A401C4F20201086820F030000860FFE7FD
:1007A00001B0704782B08DF807008DF806109DF8F3
:1007B000070001460091042844D80099DFE801F0C1
:1007C000030E1D2C37009DF8062043F60001C4F2ED
:1007D0000201086862F30000086034E09DF806201A
:1007E00043F60001C4F20201086802F0010220F49D
:1007F000803040EA0240086025E09DF8062043F67C
:100800000001C4F20201086802F0010220F08070C9
:1008100040EA0260086016E09DF8062043F6700189
:10082000C4F20201086862F3000008600BE09DF862
:10083000062043F67401C4F20201086862F3000066
:10084000086000E0FFE702B07047000082B001904E
:1008500000208DF80300BDF8060043F60001C4F245
:1008600002014058019901F01F01C840C00720B99A
:10087000FFE700208DF8030003E001208DF803005E
:10088000FFE79DF8030002B07047000080B584B018
:10089000002003908DF80B00FFE71120FFF7D6FF33
:1008A000014600200129019008D0FFE703990020AC
:1008B000B1F5405F38BF01200190FFE70198C00704
:1008C00020B1FFE7039801300390E6E71120FFF71E
:1008D000BDFF012804D0FFE700208DF80B0003E0E6
:1008E00001208DF80B00FFE79DF80B0004B080BDE0
:1008F00082B001908DF803109DF8030001280FD1FC
:10090000FFE7019800F01F02012101FA02F3010C38
:1009100043F60002C4F202028858184388500EE0E1
:10092000019800F01F02012101FA02F3010C43F6C5
:100930000002C4F20202885898438850FFE702B0D0
:100940007047000082B08DF80700ADF80410ADF8D4
:1009500002208DF801309DF8070048B9FFE743F603
:10096000A001C4F20201086840F480500860FFE76B
:100970009DF8072043F60401C4F20201086802F062
:10098000010220F4800040EA82500860BDF8042093
:1009900008686FF35F2247F6C073984340EA8210FD
:1009A0000860BDF80220086862F3030008609DF843
:1009B0000120086802F0070220F4E02040EA02402B
:1009C000086002B07047000043F60001C4F2020163
:1009D000086840F001000860FFE743F60000C4F239
:1009E00002000068C0F34000012801D0FFE7F4E7EF
:1009F00043F60801C4F20201086820F00300086011
:100A0000FFE743F60800C4F2020000688008800790
:100A100008B1FFE7F5E743F60001C4F202010868F8
:100A20004FF6FF72CFF6F2621040086043F60801FD
:100A3000C4F202010020086043F60402C4F202027C
:100A400043F20201C0F20301116043F6A001C4F2B7
:100A50000201086043F60C01C4F202014FF41F00CA
:100A60000860704781B08DF803009DF8032043F6BD
:100A70000801C4F20201086862F30100086000BFC7
:100A800000BF00BF00BF00BF00BF00BF00BF00BF6E
:100A900000BF00BF00BF00BF00BF00BF00BF00BF5E
:100AA00000BF00BF00BF01B07047000043F6080060
:100AB000C4F202000068C0F38100704780B50420D2
:100AC00001F0E4F940F20000C2F2000000684DF6C7
:100AD0008361C4F21B31A0FB0110810C40F2700055
:100AE000C2F20000016000684FF47A71484340F29E
:100AF0006C01C2F20001086080BD000082B001906C
:100B00008DF803109DF803200199086862F3000036
:100B1000086002B07047000081B000900098B0F10A
:100B2000805F09D9FFE7009820F0704046F2046129
:100B3000C4F20201086006E0009846F20441C4F2E3
:100B400002010860FFE701B07047000083B0019028
:100B5000002000900198B0F1805F07D9FFE746F2CE
:100B60000060C4F202000068009006E046F2004017
:100B7000C4F2020000680090FFE700980199084263
:100B800004D0FFE701208DF80B0003E000208DF872
:100B90000B00FFE79DF80B0003B0704782B0019097
:100BA0000091019908684BF6EF72104008600098B8
:100BB000028901990868104308600098427C0199F5
:100BC000086802F0030220F4405040EA0230086056
:100BD0000098C27B0199086802F0030220F440608B
:100BE00040EA822008600098827B0199086802F040
:100BF000030220F4407040EA022008600098427B23
:100C00000199086802F0010220F0800040EAC21059
:100C100008600098027B0199086802F0010220F048
:100C2000400040EA821008600098027C0199086840
:100C300002F0010220F0200040EA42100860009813
:100C40004289019948684FF6FF7398431044486001
:100C50000098006801998860009840680199C86010
:100C600002B0704783B0029001918DF803209DF887
:100C7000030030B1FFE7019A029908681043086049
:100C800005E0019A0299086890430860FFE703B005
:100C90007047000081B00090009843F61441C4F200
:100CA0000101086001B0704783B0029000208DF808
:100CB0000700009043F61440C4F201000068029956
:100CC00008400090009820B1FFE701208DF8070050
:100CD00003E000208DF80700FFE79DF8070003B050
:100CE0007047000082B00190ADF80210BDF802001C
:100CF0000199886102B0704782B00190ADF802108E
:100D00008DF801209DF8010028B1FFE7BDF8020031
:100D10000199886104E0BDF8020001998862FFE74B
:100D200002B0704783B0029001910020ADF800003E
:100D300001980068ADF80200FFE7BDF80200012845
:100D400062DBFFE7BDF80200C007002851D0FFE7D3
:100D5000BDF800004100032000FA01F3029A116877
:100D60009943116001998979BDF80020520001FA78
:100D700002F3029A116819431160BDF800200121A5
:100D800001FA02F3029A5168994351600199097975
:100D9000BDF8002001FA02F3029A5168194351602C
:100DA000BDF80010490000FA01F3029A91689943D6
:100DB00091600199C979BDF80020520001FA02F34F
:100DC000029A916819439160BDF80010490000FA39
:100DD00001F20299C8689043C86001984079BDF853
:100DE0000010490000FA01F20299C8681043C86077
:100DF000FFE7BDF802004008ADF80200BDF80000B2
:100E00000130ADF8000098E703B0704782B0019060
:100E1000ADF8021000208DF8010001984069BDF87E
:100E20000210084204D0FFE701208DF8010003E022
:100E300000208DF80100FFE79DF8010002B0704727
:100E400081B000900098406AC0B201B070470000C5
:100E500082B001908DF803109DF80300019988621B
:100E600002B0704780B588B0079006910592ADF842
:100E70001230069800210391FFF740FE039A06986E
:100E80000221FFF7EFFE0598079948620698079937
:100E90008A69801AB0FA80F0400900010885069836
:100EA00007998969884205D1FFE7079800682830CB
:100EB000029004E00798006824300290FFE702984F
:100EC00007990862BDF812000799488506980799A6
:100ED0002031FFF763FE0698022101220192FFF7FD
:100EE000C1FE01990698FFF709FE08B080BD000019
:100EF00082B001908DF803108DF802209DF8030058
:100F000060B9FFE79DF802200199086802F001022C
:100F100020F4804040EA823008600BE09DF8022017
:100F20000199086802F0010220F4004040EAC23052
:100F30000860FFE702B0704780B582B00190019869
:100F4000C16900F00DF802B080BD000080B582B02C
:100F500001900198816900F003F802B080BD0000A3
:100F600080B59CB01B901A911A9846F20841C4F2C1
:100F70000201884203D1FFE702201990B7E01A98D6
:100F800046F21C41C4F20201884203D1FFE720204F
:100F90001890A9E01A9846F23041C4F20201884242
:100FA00004D1FFE74FF4007017909AE01A9846F2C8
:100FB0004441C4F20201884204D1FFE74FF40050DB
:100FC00016908BE01A9846F25841C4F2020188420A
:100FD00004D1FFE74FF4003015907CE01A9846F2F8
:100FE0006C41C4F20201884204D1FFE74FF40010C3
:100FF00014906DE01A9846F28041C4F202018842D2
:1010000004D1FFE74FF0007013905EE01A9846F2AB
:101010000861C4F20201884205D1FFE70220C1F253
:10102000000012904EE01A9846F21C61C4F20201D0
:10103000884205D1FFE72020C1F2000011903EE078
:101040001A9846F23061C4F20201884206D1FFE7E5
:1010500040F20020C1F2000010902DE01A9846F2F4
:101060004461C4F20201884206D1FFE742F2000067
:10107000C1F200000F901CE01A9846F25861C4F2C9
:101080000201884205D1FFE70020C1F202000E9064
:101090000CE01A9946F26C62C4F202024FF09050D2
:1010A000914208BF4FF081500E90FFE70E980F90CD
:1010B000FFE70F981090FFE710981190FFE7119845
:1010C0001290FFE712981390FFE713981490FFE730
:1010D00014981590FFE715981690FFE7169817904B
:1010E000FFE717981890FFE718981990FFE71998ED
:1010F000FFF72CFD002800F01E81FFE71A9802215F
:101100000022FFF7AFFD1A9846F20841C4F202012F
:10111000884203D1FFE702200D90B7E01A9846F20B
:101120001C41C4F20201884203D1FFE720200C9049
:10113000A9E01A9846F23041C4F20201884204D173
:10114000FFE74FF400700B909AE01A9846F2444182
:10115000C4F20201884204D1FFE74FF400500A9024
:101160008BE01A9846F25841C4F20201884204D139
:10117000FFE74FF4003009907CE01A9846F26C418A
:10118000C4F20201884204D1FFE74FF40010089036
:101190006DE01A9846F28041C4F20201884204D1FF
:1011A000FFE74FF0007007905EE01A9846F2086182
:1011B000C4F20201884205D1FFE70220C1F200001B
:1011C00006904EE01A9846F21C61C4F20201884271
:1011D00005D1FFE72020C1F2000005903EE01A98FB
:1011E00046F23061C4F20201884206D1FFE740F2C4
:1011F0000020C1F2000004902DE01A9846F24461EC
:10120000C4F20201884206D1FFE742F20000C1F2B7
:10121000000003901CE01A9846F25861C4F20201E3
:10122000884205D1FFE70020C1F2020002900CE0E5
:101230001A9946F26C62C4F202024FF09050914249
:1012400008BF4FF081500290FFE702980390FFE73C
:1012500003980490FFE704980590FFE7059806902F
:10126000FFE706980790FFE707980890FFE70898C0
:101270000990FFE709980A90FFE70A980B90FFE7AB
:101280000B980C90FFE70C980D90FFE70D98FFF777
:1012900043FC1B9A1A9910689269891A18BF012198
:1012A00000220092FFF724FE00991A98FFF726FC0F
:1012B0001B98C06801900438022805D3FFE7019805
:1012C0000638022834D334E01B9802891B994889D8
:1012D000801A48811B98408938B9FFE71B9800683D
:1012E0002021012200F000F921E01B9802891B99BE
:1012F0004868104448601B984089B0F5807F04DB43
:10130000FFE71B99FF20088104E01B9840891B9987
:101310000881FFE71B981A9942680389FFF7A2FD2D
:101320001B9800684021012200F0DEF8FFE701E091
:1013300000E0FFE7FFE71CB080BD000080B582B091
:101340000190019800684FF4807100F0B7F880B107
:10135000FFE7019913200875019800684FF4807128
:1013600000F0A4F8019800688021002200F0BCF889
:10137000FFE7019800684FF4007100F09FF880B11A
:10138000FFE7019913200875019800684FF4007178
:1013900000F08CF8019800688021002200F0A4F889
:1013A000FFE7019800684FF4806100F087F880B192
:1013B000FFE7019913200875019800684FF48061D8
:1013C00000F074F8019800688021002200F08CF889
:1013D000FFE7019800684FF4006100F06FF880B1FA
:1013E000FFE7019913200875019800684FF4006128
:1013F00000F05CF8019800688021002200F074F889
:10140000FFE7019800684FF4805100F057F880B171
:10141000FFE7019913200875019800684FF4805187
:1014200000F044F8019800688021002200F05CF888
:10143000FFE7019800684FF4005100F03FF880B1D9
:10144000FFE7019913200875019800684FF40051D7
:1014500000F02CF8019800688021002200F044F888
:10146000FFE702B080BD000080B582B00190019816
:10147000C0680090072816D80099DFE801F004043E
:1014800008080C0C1010019800F0CEF80CE0019840
:1014900000F02AFA08E0019800F03EF804E0019814
:1014A00000F0C4F900E0FFE702B080BD82B0019017
:1014B000009100980199C86102B0704783B0019013
:1014C0000091019880690099084204D0FFE701204B
:1014D0008DF80B0003E000208DF80B00FFE79DF86E
:1014E0000B0003B07047000083B0029001918DF8AB
:1014F00003209DF8030030B1FFE7019A02990868C4
:101500001043086005E0019A02990868904308605A
:10151000FFE703B07047000080B584B002900298E6
:1015200000681021FFF7CAFFB8B1FFE70298006812
:101530001021FFF7BBFF0298006820210122FFF76E
:10154000D3FF029800F02EF90298408920B1FFE7FE
:10155000029911200875FFE75EE00298006880217B
:10156000FFF7ACFF68B3FFE7029800684021002254
:10157000FFF7BAFF02984089F0B1FFE702980190A7
:10158000006800F09BFA01460198002200F056FA2C
:101590000298008D102807D1FFE70298006800210B
:1015A0000122FFF7A5FC06E002980068012211461F
:1015B000FFF79EFCFFE703E00D208DF80F002FE002
:1015C00029E0029800682021FFF778FF10B3FFE7B9
:1015D000029800682021FFF769FF029800F002F9E5
:1015E000029800681021FFF769FF30B1FFE7029809
:1015F00000681021FFF75AFFFFE7029800F0D2F8C9
:1016000002980068F6210022FFF76EFF0299012080
:101610000861FFE7FFE7FFE700208DF80F00FFE715
:101620009DF80F0004B080BD80B584B00290029890
:1016300000681021FFF742FF88B1FFE702980068B9
:101640001021FFF733FF029800F0ACF802984089B0
:1016500020B1FFE7029911200875FFE79AE0029890
:1016600000680221FFF72AFF88B1FFE7029B186894
:1016700059684A1C5A600978FFF7EAFB02994889C1
:1016800001384881029908890138088181E002986F
:1016900000688021FFF712FFC0B1FFE702980089C0
:1016A00078B9FFE70298408958B1FFE702980190A6
:1016B000006800F003FA01460198002200F0BEF92C
:1016C00003E00D208DF80F0068E061E002980068EB
:1016D0000421FFF7F3FE90B1FFE702980068FFF7DF
:1016E000AFFB029B59684A1C5A60087002994889EE
:1016F00001384881029908890138088147E0029839
:1017000000684021FFF7DAFEB0B1FFE70298408998
:1017100068B9FFE7029800684068400EC00728B922
:10172000FFE70298006800F0BFF9FFE703E00E2032
:101730008DF80F0032E029E0029800682021FFF7C1
:10174000BDFE10B3FFE7029800682021FFF7AEFE50
:10175000029800F047F8029800681021FFF7AEFEEB
:1017600030B1FFE7029800681021FFF79FFEFFE706
:10177000029800F017F802980068F6210022FFF79F
:10178000B3FE029901200861FFE7FFE7FFE7FFE7EB
:10179000FFE7FFE700208DF80F00FFE79DF80F003F
:1017A00004B080BD80B582B001900198006802212C
:1017B000FFF784FE28B1FFE70198016800208862E6
:1017C000FFE7019800680121FFF778FE38B9FFE7CD
:1017D00001980168886940F001008861FFE702B064
:1017E00080BD000081B0009000980168486840F218
:1017F000FF329043486000980168486820F48050A8
:10180000486000980168486820F47F0048600098AC
:101810000168486820F08070486000980168486856
:1018200020F48060486001B07047000080B582B04D
:101830000190019800681021FFF740FE30B1FFE7EA
:10184000019800681021FFF731FE49E00198006817
:101850000821FFF733FE30B1FFE701980068082147
:10186000FFF724FE3BE0019800682021FFF726FEE9
:10187000A0B3FFE7019800682021FFF717FE019849
:101880000068FE210022FFF72FFE0198FFF7AAFF54
:101890000198FFF787FF019800680421FFF70EFE0B
:1018A000C0B1FFE701980068FFF7CAFA019B5968C9
:1018B0004A1C5A60087001980089012809DBFFE77B
:1018C00001994889013848810199088901380881BE
:1018D000FFE7FFE7019901200861FFE7FFE7FFE766
:1018E000002002B080BD000080B582B00190019858
:1018F00000681021FFF7E2FDA0B1FFE701984089E1
:1019000048B9FFE70198FFF74DFF019800681021E3
:10191000FFF7CCFD05E0019800681021FFF7C6FD38
:10192000FFE788E0019800680821FFF7C7FD30B1A4
:10193000FFE7019800680821FFF7B8FD7AE00198F9
:1019400000680221FFF7BAFDB8B1FFE701984089AE
:10195000012811DBFFE7019A5068411C51600078B3
:1019600001990968886201990889013808810199FB
:10197000488901384881FFE75BE00198006804214D
:10198000FFF79CFDC0B1FFE701984089012812DBF9
:10199000FFE701980068FFF753FA019B59684A1C5A
:1019A0005A6008700199488901384881019908896D
:1019B00001380881FFE73BE0019800682021FFF72C
:1019C0007DFDA0B3FFE7019800682021FFF76EFDC1
:1019D00001980068FE210022FFF786FD0198FFF7BD
:1019E00001FF0198FFF7DEFE019800680421FFF770
:1019F00065FDC0B1FFE701980068FFF721FA019B80
:101A000059684A1C5A60087001980089012809DB4E
:101A1000FFE701994889013848810199088901380F
:101A20000881FFE7FFE7019901200861FFE7FFE771
:101A3000FFE7FFE7FFE7002002B080BD80B584B07C
:101A40000390ADF80A10ADF8082003984089B0F56E
:101A5000807F13DBFFE70399FF200881039A10685A
:101A6000BDF80A101289BDF80830EC46CCF80030F9
:101A7000D2B24FF0807300F029F813E00398408948
:101A800003990881039A1068BDF80A101289BDF8FD
:101A90000830EC46CCF80030D2B24FF0007300F0C2
:101AA00015F8FFE704B080BD81B000900099486848
:101AB00040F48040486001B07047000081B0009061
:101AC000009840686FF39F2001B0704780B585B0E3
:101AD00084460798CDF810C0ADF80E108DF80D2093
:101AE0000293ADF80600049840680090009849F60B
:101AF0000001CFF6004108400090BDF80E000299A9
:101B00000843BDF8061001430098084300909DF873
:101B10000D10009840EA0140009000980499486038
:101B200005B080BD80B588B000200290079000F01D
:101B3000ADF8FEF7C3FF0120C0F23000012104918F
:101B4000FEF7D6FE04994FF48800FEF7D1FE029806
:101B500004998DF81B108DF81A108DF818004FF4A9
:101B60008061019105918DF8190040F20040C4F2A6
:101B70000200009005A9FFF7D5F800980199FFF73A
:101B8000B1F80020C4F20100039042F2127147F252
:101B9000770200F097F90299039800F0A5F90398ED
:101BA000049A114600F0CAF9032000F053F8029A93
:101BB0001920114600F034F80398049900F0A6F9B2
:101BC000FFE740F26800C2F200000078012825D14A
:101BD000FFE740F26801C2F200010020087040F205
:101BE0000040C4F202004FF48061FFF70FF950B9D2
:101BF000FFE740F20040C4F202004FF4806101228E
:101C0000FFF77AF809E040F20040C4F202004FF416
:101C100080610022FFF770F8FFE7FFE7D1E70000DF
:101C200080B584B08DF80F000291019200200090E1
:101C3000FEF718FD0299019AFEF752FC00909DF9FB
:101C40000F000099FEF716FD9DF90F00FEF7F2FC5C
:101C500004B080BD80B582B08DF807009DF8070004
:101C6000FEF72AFD02B080BD80B50820FFF71CF802
:101C700050B1FFE740F2A801C2F200010120088044
:101C80000820FFF707F8FFE780BD000080B584B0AB
:101C9000FEF79AFE1C20C0F2400001210391FEF7DE
:101CA00027FE039947F21002C4F20002106861F3A4
:101CB0000200106043F66042C4F20202106861F351
:101CC000010010600846FEF76DFDFFE7FEF7DEFD40
:101CD00008B9FFE7FAE7902101220292022301935B
:101CE0001046FEF72FFE01980299FEF75BFDFFE715
:101CF0001920FEF7ABFD012801D0FFE7F8E700202F
:101D0000FEF7F8FC04200090FEF71CFD0098FEF79B
:101D100005FD0120FEF72AFD0220FEF7A3FEFFE7E6
:101D2000FEF7C4FE022801D0FFE7F9E70020FEF726
:101D30001DFD00F003F804B080BD000080B58AB03E
:101D40000020099008900790069005900490039059
:101D5000FEF7ACFE8DF80B009DF80B0001460191DB
:101D600040B1FFE7019801282BD0FFE70198022836
:101D700031D068E043F6A000C4F202000068800B96
:101D8000C00798B1FFE743F6A000C4F20200006864
:101D9000000BC00750B1FFE740F20001C2F20001A2
:101DA00046F60040C0F2DC20086009E040F2000185
:101DB000C2F2000141F20020C0F27A000860FFE7A1
:101DC0004BE040F20001C2F2000141F20020C0F2FB
:101DD0007A00086041E043F60400C4F202000168A2
:101DE000C1F3805106910168C1F38811099101681E
:101DF00001F00F0108910068C0F3024141F69070B4
:101E0000C0F60000405C0790069830B9FFE741F249
:101E10000020C0F27A00059005E041F20020C0F2F7
:101E20007A000590FFE705980999A0FB0101089A3F
:101E3000079B5A430023FEF76FFA40F20001C2F2FB
:101E40000001086009E040F20001C2F2000141F225
:101E50000020C0F27A000860FFE743F60800C4F2F1
:101E600002000068C0F303100490049941F69670D4
:101E7000C0F60000405C039040F20001C2F2000195
:101E80000868039AD04008600AB080BD81B08DF820
:101E900003009DF80300042809D1FFE74EF210016A
:101EA000CEF20001086840F00400086008E04EF23D
:101EB0001001CEF20001086820F004000860FFE77E
:101EC00001B0704783B0029001910092019802998D
:101ED000C8620098029988620299486940F001003E
:101EE000486103B07047000082B001908DF8031084
:101EF0009DF803200199086802F0070220F07000A5
:101F000040EA0210086002B07047000082B0019001
:101F10008DF803109DF803200199086862F3000012
:101F2000086002B07047000082B0019000910098F4
:101F3000C0430199086102B07047000083B002906D
:101F400001918DF803209DF80300012806D1FFE7D9
:101F5000019A0299C8681043C8600AE09DF803001E
:101F600030B9FFE7019A0299C8689043C860FFE75B
:101F7000FFE703B07047F1EE100A4FF6FF71C0F2B1
:101F8000C03120EA010040F04070E1EE100A7047D5
:101F900001020408102000000000000000000102FF
:101FA0000304060708090000C81F000800000020FD
:101FB0000800000070020008D01F00080800002080
:101FC000A80600009002000800127A00000000003D
:040000050800020DE0
:00000001FF
