:020000040800F2
:1000000000070020850300080D160008E51500080C
:1000100009160008B5150008F516000800000000D4
:10002000000000000000000000000000151600089D
:10003000D915000800000000111600081916000864
:100040009F0300089F0300089F0300089F03000808
:100050009F0300089F0300089F0300089F030008F8
:100060009F030008DD1500089F0300089F03000898
:100070009F0300089F0300089F0300089F030008D8
:100080009F0300089F0300089F0300089F030008C8
:100090009F0300089F0300089F0300089F030008B8
:1000A0009F030008D91600089F0300089F0300085B
:1000B0009F0300089F0300089F0300089F03000898
:1000C0009F030008F9150008E91500089F030008C0
:1000D0009F0300089F0300089F0300089F03000878
:1000E0009F0300089F0300089F0300089F03000868
:1000F0009F0300089F0300089F0300089F03000858
:100100009F0300089F0300089F0300089F03000847
:100110009F0300089F0300089F0300089F03000837
:10012000B9150008C91500089F0300089F030008BF
:100130009F0300089F0300089F0300089F03000817
:100140009F0300089F0300089F0300089F03000807
:100150009F0300089F030008000000009F030008A1
:100160009F0300089F03000800000000000000003B
:100170009F0300089F0300089F0300080000000081
:10018000000000009F0300089F0300089F03000871
:100190009F030008000000000000000000000000B5
:1001A0000000000000000000000000009F030008A5
:1001B0009F030008000000009F03000800000000EB
:1001C000000000000000000000000000000000002F
:1001D00000000000000000009F0300089F030008CB
:1001E0009F0300089F0300089F0300089F03000867
:1001F0009F0300089F0300089F0300089F03000857
:100200009F0300089F0300089F03000800F002F806
:1002100000F0A8F814A696E8000CB244B344DA45FE
:1002200001D100F09FF8BAE80F000FA696E8300061
:10023000A5EB040504EB0607AAEB0704A7F10107E9
:100240004FEA15154FEA3414A4F10104AC4201D36E
:1002500000F088F813F0010F18BFFB1A43F00103F8
:1002600000F001F8DBE718477C4B00009C4B0000D6
:10027000103A24BF78C878C1FAD8520724BF30C8D2
:1002800030C144BF04680C60704700007047000034
:100290000023002400250026103A28BF78C1FBD88F
:1002A000520728BF30C148BF0B6070476E2900F06D
:1002B000B181702900F0E782662904F0BE846529C7
:1002C00004F0BB84672904F0B884612904F0B78482
:1002D00003681B0A28BF41F08001692900F05E8194
:1002E000642900F05B81752900F058816F2900F0C6
:1002F0007582782900F0B382E92900F00F82E429A1
:1003000000F00C82F52900F00982EF2900F07282DA
:10031000F82900F0B2820368DB0928BF41F08001B0
:10032000632900F0CB87732900F0D087E32900F020
:10033000DB87F32900F0E087002070471FB504F049
:100340006AFC01F033F804000020002104F038F9C1
:10035000401C60600020002104F01CF9E0601FBD1B
:1003600010B510BD00F0F4FF1146FFF7E7FF02F0F3
:100370009FFF01F0D1F803B4FFF7F2FF03BC01F0D7
:10038000D9F900000948804709480047FEE7FEE721
:10039000FEE7FEE7FEE7FEE7FEE7FEE7FEE7FEE735
:1003A00004480549054A064B704700001D16000821
:1003B0000D020008000100200007002000030020BB
:1003C00000030020704753EA020C00F069802DE919
:1003D000F04B4FF00006002B1FBFB3FA83F503FA72
:1003E00005F424FA05F65E4012BF1643B2FA82F510
:1003F00002FA05F4C5F120051EBF22FA05FC44EA05
:100400000C04203556EA044C4FEA144418BF641C0F
:100410004FF000084FF00009904271EB030C39D304
:10042000002919BFB1FA81F701FA07F6B0FA80F78F
:1004300000FA07F6C7F120071EBF20FA07FC46EABC
:100440000C062037B6FBF4FCA7EB0507103F07F0BE
:100450001F0BCBF120062CFA06F60CFA0BFB44BF5F
:10046000B3460026202FA4BF5E464FF0000B5BEA88
:10047000060C08BF4FF0010B19EB0B0948EB0608FF
:10048000ABFB027C06FB02CC0BFB03CCC01B71EB6D
:100490000C01C1E70B46024641464846BDE8F08BD9
:1004A00013B5084318BF4FF0FF300146AFF300808B
:1004B000BDE81C40704700000FB4044910B503AA02
:1004C000029800F0BBF810BC5DF814FB6C00002033
:1004D000704770477047704770B50446856900687B
:1004E000C10601D5302600E02026C00707D070BD28
:1004F000D4E9012130469047206A401C20626D1EDD
:10050000F6D570BD70B5044685690078C00707D17F
:1005100070BDD4E9012120209047206A401C206250
:100520006D1EF6D570BD09684A0501D540B2704709
:10053000C905FCD500B2704709684A0501D5C0B2AB
:100540007047C905FCD580B2704770B50C460546AA
:10055000012A05D02878800600D5EA69002302E048
:10056000012305E05B1C934202D2E05C0028F9D134
:10057000A869E618C01AA861286A184428622846A3
:10058000FFF7AAFF04E0D5E9012114F8010B904719
:10059000B442F8D32846FFF7B5FF70BD2DE9F0410E
:1005A0000646002410687529314616A510D0FFF7BD
:1005B000BAFF002802DA404213A507E031688A0733
:1005C00001D512A502E0490704D511A5012401E0D7
:1005D000FFF7B2FF00210A2206F1240709E0B0FB71
:1005E000F2FCB0FBF2F302FB1C00303078541846EA
:1005F000491C0028F3D123462A463046BDE8F04185
:1006000000F055BA000000002D0000002B00000093
:100610002000000011680268006A530501D50870C7
:100620000AE0D30501D5088006E0130603D5C217FA
:10063000C1E9000200E0086001207047074B70B577
:100640000D467B4400F01DFE0446284600F058FE8F
:1006500010B14FF0FF3070BD204670BDA31D0000EB
:100660002DE9FF5F15468A460446DFF8AC80F84462
:100670000027D8E900103E46CDE9001010E03AF816
:1006800016106A4602A800F03FFE411C07D02178F0
:10069000890603D5E269391891420DD80744761CC2
:1006A0002078800602D5E069B84205DDAE42E6DB7F
:1006B0003AF816000028E2D1A069C01BA0612046CC
:1006C000FFF70AFFD8E90010CDE90010002017E07D
:1006D0003AF818106A4602A800F016FEB0F1FF3F83
:1006E00081460BD000250DF1080B05E0D4E901216E
:1006F0001BF8050090476D1C4D45F7D308F101002C
:10070000B0428046E4DB206A384420622046FFF78E
:10071000F9FEBDE8FF9F0000D24500002DE9F04141
:100720008046D21D22F007020025D2E90002F529F9
:1007300015A614D0011E72F1000106DA0023D0EBD9
:10074000030063EB020211A608E0D8F800108B0743
:1007500001D50FA602E0490701D50EA601251146D5
:10076000002408F1240704E000F05CF930323A5527
:10077000641C50EA0102F7D12B463246214640461E
:10078000BDE8F04100F093B9000000002D0000002A
:100790002B0000002000000030B4002100F12404F0
:1007A00008E002F00705D208303542EA4372DB0860
:1007B0006554491C52EA0305F3D10468002310A2D2
:1007C000250708D504F020040C4304D0C469012394
:1007D0000CA2641EC46130BC00F069B910B50446B7
:1007E00021461068FFF7A8FE02462046BDE81040EB
:1007F0000023D1E7D21D22F00701D1E90023CBE786
:100800000000000030000000F0B40D46018809052A
:1008100002D5214C7C4402E01F4C7C440E34002164
:1008200000F1240608E002F00F071209E75D42EA32
:1008300003721B097754491C52EA0307F3D102786B
:100840000023120704D5702D06D009B102231134FC
:100850002246F0BC00F02BB901231034F8E770B544
:1008600004460D4621461068FFF766FE02462946FB
:100870002046BDE870400023C6E7D21D22F00703E2
:10088000D3E90023C0E70368126843F02003036044
:100890000823C3610023B7E7344400002DE9F05F6B
:1008A000894604464FF0000ADFF874B1FB44C0F8F3
:1008B00020A02046E1688847002874D0252806D06B
:1008C000D4E901219047206A401C2062F1E700260C
:1008D0005F462046E16888472028054607DB312D22
:1008E00005D2781910F8200C08B10643F1E7B007DB
:1008F00001D526F00406C4F81CA00027C4F818A0EF
:100900002A2D09D0284603F03DFE38B304EB8708B2
:10091000303DC8F8185019E059F8041B204604EB84
:1009200087029161E1688847012F054618D1E06987
:10093000002820DA26F020061DE0D8F8180000EB89
:10094000800005EB40003038C8F818002046E16808
:100950008847054603F016FE0028EED1012F0AD085
:100960002E2D08D12046E16888477F1C0546022FBE
:1009700046F02006C4DBA069002803DA404246F0B6
:100980000106A061F00701D026F010066C2D0BD0F7
:10099000682D09D04C2D39D06A2D35D0742D35D025
:1009A0007A2D33D016E038E0E1682F46204688479C
:1009B000B842054609D16C2F26D04FF48060E1681B
:1009C000064320468847054604E06C2F1AD04FF4B2
:1009D000807006430DB3A5F14100192802D82035D7
:1009E00046F400664A462946204626604E46FFF7F2
:1009F0005DFC80B101280BD0F61D26F0070000F148
:100A0000080956E74020E4E78020D8E70020D6E731
:100A100006F104094DE7284652E7206ABDE8F09F39
:100A2000C443000030B5B0F10A0271F100034FEA8F
:100A3000900E4EEA817EB0EB0E0061EB91014FEA21
:100A4000101E4EEA017E10EB0E0041EB11114FEA31
:100A5000102E4EEA016E10EB0E0041EB11214FEA11
:100A6000104E4EEA014E10EB0E0041EB11414018C2
:100A700041F100014FEAD00040EA41704FEAD10154
:100A80004FEA810444EA907410EB800544EB0104C2
:100A90006D1944EB0404521BA3414FF0000348BFFF
:100AA0000A3200D530BD401C41F1000130BD2DE9B6
:100AB000F0470D4699469246044600F12408016825
:100AC000880604D5E06921F01001216000E00120D2
:100AD000A84201DD471B00E00027A1697A1902EB5B
:100AE0000900081AA0612078C00602D42046FFF74A
:100AF000F3FC002608E0D4E901211AF8060090472B
:100B0000206A401C761C20624E45F4DB2078C0062B
:100B10000AD52046FFF7E0FC06E0D4E901213020A9
:100B20009047206A401C2062381EA7F10107F4DCC0
:100B300007E0D4E9012118F805009047206A401C1D
:100B40002062281EA5F10105F3DC2046FFF7DAFC40
:100B50002078000602D50220BDE8F0870120FBE7DF
:100B60002DE9FF4F0C461E464FF0FF378BB0D2E900
:100B70000001DDF860800A908A46C1F30A5505B984
:100B80003D46002108464FF00000BAF1000F00F486
:100B9000400005DA00EB80004FF4400101EA50000C
:100BA0004FEA9059B9F1010F00DDB9460A9850EAB1
:100BB0004A000ED044F61050A5F2FF3545432F14DD
:100BC000B8F1000F1ED07542291E1EDDC9F10002CA
:100BD0001CE0B8F1010F4FF0000001D0302103E01C
:100BE000F24305E02154401CB042FBDB30460022BA
:100BF000002121540B99C1F80880C1E900200FB0F1
:100C0000BDE8F08FBD1B6D1CDEE74A4600DA694285
:100C100006A800F00FFC06AB93E8070003AB83E8DF
:100C2000070050460A9903F0CCF88DE80700A0F5BC
:100C300000501F3800900398002D0ADD42F21F017A
:100C40004A460844002303A90390684603F036FB94
:100C500009E0A0F500504A461F38002303A903907D
:100C6000684603F040FB8DE807000004000C03D049
:100C70004FF0FF30410800E01046B8F1000F03D0FC
:100C80000022009215461EE0751E05D4FFF7CAFE2D
:100C9000303262556D1EF9D5B3460122084302D0A9
:100CA00000227F1C04E02078302801D100227F1E22
:100CB000002A099784D01DE0112D07DAFFF7B2FE54
:100CC000303262556D1C50EA0102F5D1084302D062
:100CD0000098C8B10EE00021681E05E0235C625C4C
:100CE00063542254401E491C8142F7DBAB46A81BCB
:100CF000401E0990002004F80B000B98099AC0F8D8
:100D00000880C0E9002B7AE711264FF0000857E76A
:100D10002DE9F04F88460446D21D22F0070191B01C
:100D2000D1E90001CDE90A0103F014FC02460B9859
:100D3000C00F01D02D2007E02068810701D52B20AE
:100D400002E0202101EAC000032A099001D0072A0D
:100D500005DB03464146204600F02CFB0BE12078E2
:100D6000800601D5E06900E00620B8F1650F8146F4
:100D700006D0B8F1660F18D0B8F1670F70D131E026
:100D80000020B9F1110F009001DB112301E009F1FE
:100D900001030AAA01A90CA8FFF7E2FEDDE90C7025
:100DA000002609F10105834647E001204B460090EB
:100DB0004FF000470AAA01A90CA8FFF7D1FEDDE910
:100DC0000DB00C995D46002610B909F101000D180F
:100DD000B9EB050003D4C0F1FF3609F10105A5EB1D
:100DE00009002BE0B9F1010F01DA4FF001090020F1
:100DF000B9F1110F0090484601DD112300E00346D0
:100E00000AAA01A90CA8FFF7ABFEDDE90C704D465C
:100E100000268346207800070AD4AB4500DA5D46F9
:100E200001A8012D04DD411911F8011C302907D05A
:100E30004F4502DA17F1040F04DA012082460FE071
:100E40006D1EEEE7002F02DCED1B3E4403E0781C34
:100E5000A84200DD7D1CB81B00F1010A4FF00047DD
:100E60002078000703D4AA4501DB4FF0FF3A0021A8
:100E7000B7F1004F0DF143088DF8431024D0022044
:100E80002B23002F01DA7F422D230A21021EA0F11D
:100E9000010000DC5FB197FBF1FC97FBF1F201FB75
:100EA0001C7C17460CF1300C08F801CDEEE7A8F1D8
:100EB000010003702188090501D5452100E0652165
:100EC000A0F1010800F8011C09980FA9A1EB08077F
:100ED000FF1D00B10120411901EBEA70A1693844FE
:100EE000081A401EA0612078C00602D42046FFF7F1
:100EF000F3FA099828B1D4E901219047206A401CEF
:100F000020622078C00622D52046FFF7E5FA1EE0D1
:100F1000002E04DBB34502DD01A8805D00E0302037
:100F2000D4E901219047206A401C2062761CAAF176
:100F300001005FEA000A0AD100F038FAC0680168CF
:100F4000405CD4E901219047206A401C2062281EA1
:100F5000A5F10105DCDC07E0D4E9012118F8010B5B
:100F60009047206A401C2062381EA7F10107F3DC7D
:100F70002046FFF7C7FA032011B041E62DE9F04FF4
:100F800004460D46D21D22F0070089B0D0E9009733
:100F90004846394603F0DEFA0246F80F01D02D2309
:100FA00007E02068810701D52B2302E0202101EA18
:100FB000C0038DF820300BB1012000E00020032A8F
:100FC000824601D0072A04DB2946204600F0F2F9C8
:100FD0003FE12078800601D40D2500E0E569C7F3E4
:100FE0000A560D2D49DA00214FEA175B08464FF0EB
:100FF0000000002F00F4400007DA00EB80004FF4FF
:10100000400100EBD07001EA60008115012901DD8B
:101010004FF0FF3100224FEA850CBCF1180F06D3C8
:101020001346ACF118004FF08052C24003E04FF479
:10103000801323FA0CF30CF10C0CBCF1200F04D339
:10104000ACF1200C09FA0CF001E007FA0CF00029D1
:101050004FF0004801DD18B90FE00ED140450CD328
:1010600019EB02095F4121B9404502D19F4329EAAA
:101070000209BBEB175F00D0761C2088000502D563
:101080007B48784402E07A487844193808AA30232B
:1010900002F80A30037C0AF10101002E0AF1020A6B
:1010A00053546A4602DC4FF0300101E04FF0310149
:1010B0004FF001088DF8001002D0A6F2FF3603E0D1
:1010C00059EA470100D06B4E002D02DC2178090758
:1010D00004D54FF002082E218DF80110C4460021DE
:1010E0000BE0C7F303433F01C35C491C6D1E02F8CC
:1010F0000830052908F1010801DA002DF1DC002192
:101100000CE000EB1973491C1B786D1E082902F8CE
:1011100008304FEA091908F1010801DA002DF0DC66
:1011200021688B0602D516E0A8F10108E04505DD2F
:1011300002EB080313F8013C302BF5D0B8F1000F97
:1011400009DD02EB080313F8013C2E2B03D109073C
:1011500001D4A8F10108002D05DD3E2102F8081098
:101160006D1E08F10108407C002E02F8080008F10D
:10117000010804DA2D20764202F8080002E02B2054
:1011800002F808000A214FF47A70864208F101083B
:101190000BDB96FBF0F3303302F8083096FBF0F3EC
:1011A00008F1010800FB136601E0642E0CDB6420EB
:1011B00096FBF0F3303302F8083096FBF0F308F1B9
:1011C000010800FB136601E00A2E06DB96FBF1F036
:1011D000303002F8080008F1010896FBF1F001FB3D
:1011E0001060303002F80800A16908F1010808EB2E
:1011F000050202EB0A00081AA0612078C00602D49A
:101200002046FFF769F9216A08AE01EB0A00206267
:1012100004E0D4E9012116F8010B9047BAF1010A64
:10122000F7D22078C00602D52046FFF755F96E4662
:1012300009E016F8010B3E280FD0D4E901219047B0
:10124000206A401C2062B8F10108F2D22046FFF764
:1012500059F909B00320BDE8F08F206A28442062C4
:1012600003E0D4E90121302090476D1EEBD3F8E76D
:10127000123C000002FCFFFF01694A1C0261087871
:10128000704700B58FB0CDE90131002105910549C6
:101290007944CDE9031011466846FFF7FFFA0FB015
:1012A00000BD0000E5FFFFFF10B5436913B1AFF3C8
:1012B000008001E0FFF749F9012010BD127800F12C
:1012C00024010A7000224A700122EDE711684FF0F4
:1012D000FF32E9E710B5436913B1AFF3008001E0D5
:1012E000FFF7BEF9012010BD128800F124018284AD
:1012F0000022C2840122EDE711684FF0FF32E9E7D6
:10130000007B00F0800070472DE9F04116460C4646
:10131000054600F043F8036893F80101012807D05F
:10132000FF2C12D8185D80B101202C70BDE8F0812F
:10133000D3F807013246214603F20713C71828469F
:10134000BC46BDE8F041002360474FF0FF30EDE7B9
:10135000754600F0EBF8AE4605006946534620F0AE
:101360000700854618B020B5FFF71AF8BDE8204001
:101370004FF000064FF000074FF000084FF0000B51
:10138000AC46ACE8C009ACE8C009ACE8C009ACE8C0
:10139000C00921F007018D467047000010B500F02C
:1013A00005F8001D10BD00BF19320000004870474D
:1013B000280000202DE9F0411F460446032601685D
:1013C000072A01F4006004DB08B116A505E016A5A4
:1013D00003E008B115A500E015A521F0100020607C
:1013E000A069C01EA0610FB1401EA0612046FFF79A
:1013F00073F84FB1D4E9012138469047206A401C68
:101400002062C01C206206E0206AFAE7D4E90121CC
:1014100015F8010B9047761EF8D22046FFF772F8B8
:10142000BDE8F0814E414E006E616E00494E4600AF
:10143000696E66002DE9F047814616468AB0354848
:1014400078440DC88DE80D0032487844801C03AC08
:101450000DC884E80D0041F69B300844372190FB0D
:10146000F1F290FBF1F5A5F1800501FB12041B3CA4
:1014700002D56442012000E00020DFF898A08046F9
:101480000027FA44AAF1BE0A0EE0E0070AD032466D
:10149000684607EB470101230AEB810102F023FFB5
:1014A0008DE8070064107F1C002CEED1194F7F449B
:1014B000AE3F19E0E80715D007EB04100DF1180A4C
:1014C00090E80E008AE80E00C068F04201D1981939
:1014D00008903246012306A903A802F004FF03ABDB
:1014E00083E807006D10641C002DE3D14FF0010369
:1014F00032466946B8F1000F03A802D002F0DEFEC2
:1015000001E002F0F0FEC9E90001C9F808200AB0C4
:10151000BDE8F087E438000010B50446AFF3008062
:101520002046BDE81040FEF726BF00000048704787
:10153000080000200000000030B44FF0013C50F8DB
:10154000042B51F8043BCCFA52F4D51A20D1FCB943
:1015500050F8042B51F8043BCCFA52F4D51A17D1A9
:10156000B4B950F8042B51F8043BCCFA52F4D51A14
:101570000ED16CB950F8042B51F8043BCCFA52F45C
:10158000D51A05D1002CDAD030BC4FF000007047DE
:1015900029BAB1FA81F111F01801D1F1200084408B
:1015A000F2D1CA40CB4012F0FF0213F0FF0330BC6F
:1015B000D01A7047FFE7FEE780B540F2C800C2F2DC
:1015C000000001F087F880BD80B540F2C800C2F28B
:1015D000000001F075F880BD7047000080B501F093
:1015E000EDFF80BDFFE7FEE780B540F2C800C2F224
:1015F000000001F067FA80BD80B540F2C800C2F279
:10160000000001F0F5FA80BDFFE7FEE7704700003B
:101610007047000070470000704700004EF6885188
:10162000CEF20001086840F47000086043F6000143
:10163000C4F20201086840F001000860FFE743F6C9
:101640000000C4F202000068C0F34000012801D08D
:10165000FFE7F4E743F60801C4F20201086820F04E
:1016600003000860FFE743F60800C4F202000068C8
:101670008008800708B1FFE7F5E743F60001C4F2F0
:10168000020108684FF6FF72CFF6F2621040086060
:1016900043F60801C4F202010020086043F6040288
:1016A000C4F2020243F20201C0F20301116043F6E8
:1016B000A001C4F20201086043F60C01C4F2020169
:1016C0004FF41F0008604EF60851CEF200014FF0B3
:1016D000006008607047000080B540F26800C2F208
:1016E0000000012101700020C4F2010002F050F955
:1016F00080BD0000FFE7FEE783B00290029800F093
:10170000070000904EF60C51CEF2000108680190DF
:1017100001984FF6FF02104001900198009A40EAAC
:1017200002200022C0F2FA52104301900198086092
:1017300003B0704781B0009001B0704782B0019053
:101740000091009802780199486802F0010220F4A3
:10175000807040EA022048600098427801998868C9
:1017600002F0010220F0020040EA42008860009886
:1017700082780199886802F0010220F4006040EA52
:10178000C22088600098C078421E0199C86A02F0A1
:101790000F0220F4700040EA0250C86202B07047A5
:1017A00081B000900099002008700099487000995D
:1017B000887000990120C87001B0704781B0009016
:1017C0000099886840F00800886001B07047000008
:1017D00082B0009000988068C008C00720B1FFE781
:1017E00001208DF8070003E000208DF80700FFE7D7
:1017F0009DF8070002B0704781B00090009988689A
:1018000040F00400886001B07047000082B0009092
:10181000009880688008C00720B1FFE701208DF89C
:10182000070003E000208DF80700FFE79DF80700A0
:1018300002B0704781B000900098027842F2043103
:10184000C4F20101086862F304000860009842785D
:10185000086802F00F0220F4702040EA024008609D
:10186000009880784007002809D5FFE742F204314C
:10187000C4F20101086840F08050086008E042F2BC
:101880000431C4F20101086820F080500860FFE7CD
:101890000098807800F0030242F20431C4F20101A2
:1018A000086820F4404040EA823008600098C2781E
:1018B000086802F0010220F4005040EA423008605B
:1018C00000980279086802F00F0220F4706040EA84
:1018D0000220086000984279086802F0010220F4B2
:1018E000000040EAC250086000988279086802F05F
:1018F000010220F4800040EA8250086001B0704785
:1019000081B00090009900200870009948700099FB
:1019100088700099C8700099087100994871009901
:10192000887101B07047000082B001908DF80310FB
:101930009DF803200199886862F30000886002B076
:101940007047000082B001908DF8031000208DF8E0
:101950000200019800689DF80310084204D1FFE7D7
:1019600000208DF8020003E001208DF80200FFE75F
:101970009DF8020002B0704783B002908DF8071006
:101980008DF806208DF805309DF8070009281CDC2D
:10199000FFE70298006900909DF8070000EB400106
:1019A000072000FA01F10098884300909DF8050097
:1019B0009DF8071001EB410100FA01F1009808437E
:1019C00000900098029908611EE00298C06800909B
:1019D0009DF8070000EB4000A0F11E01072000FA6F
:1019E00001F10098884300909DF805009DF80710CC
:1019F00001EB41011E3900FA01F100980843009003
:101A000000980299C860FFE79DF806000D281FDBCB
:101A1000FFE70298C06A00909DF8060000EB800086
:101A2000A0F141011F2000FA01F1009888430090C5
:101A30009DF807009DF8061001EB8101413900FA7D
:101A400001F100980843009000980299C86242E0B2
:101A50009DF8060007281FDBFFE70298006B009047
:101A60009DF8060000EB8000A0F123011F2000FA82
:101A700001F10098884300909DF807009DF806103A
:101A800001EB8101233900FA01F10098084300902D
:101A90000098029908631DE00298406B00909DF841
:101AA000060000EB8000411F1F2000FA01F10098A2
:101AB000884300909DF807009DF8061001EB810116
:101AC000053900FA01F10098084300900098029946
:101AD0004863FFE7FFE703B07047000082B0019062
:101AE0008DF803109DF803200199D1F8800062F36E
:101AF0000000C1F8800002B07047000082B0019081
:101B00008DF803109DF803200199D1F8800002F0B0
:101B1000010220F4806040EA8220C1F8800002B017
:101B20007047000082B001908DF803109DF80320EB
:101B30000199D1F8800002F0010220F4007040EA1F
:101B40004220C1F8800002B07047000082B00190CE
:101B50008DF803109DF803200199486802F00302F4
:101B600020F0407040EA0260486002B07047000018
:101B700081B08DF803009DF8032043F60801C4F2FC
:101B80000201086802F00F0220F0F00040EA0210A3
:101B9000086001B07047000081B08DF803009DF827
:101BA000032043F60801C4F20201086802F00702AC
:101BB00020F4E05040EA8220086001B07047000045
:101BC00081B08DF803009DF8032043F60801C4F2AC
:101BD0000201086802F0070220F4604040EA423047
:101BE000086001B07047000081B08DF803009DF8D7
:101BF0000300012809D1FFE743F6A401C4F2020162
:101C0000086840F03000086008E043F6A401C4F220
:101C10000201086820F030000860FFE701B070475B
:101C200082B08DF807008DF806109DF80700014678
:101C30000091042844D80099DFE801F0030E1D2C20
:101C400037009DF8062043F60001C4F2020108683F
:101C500062F30000086034E09DF8062043F60001BE
:101C6000C4F20201086802F0010220F4803040EA68
:101C70000240086025E09DF8062043F60001C4F20A
:101C80000201086802F0010220F0807040EA026060
:101C9000086016E09DF8062043F67001C4F20201C8
:101CA000086862F3000008600BE09DF8062043F628
:101CB0007401C4F20201086862F30000086000E0E9
:101CC000FFE702B07047000080B58AB0099000209D
:101CD000089007900690059004900390029000F001
:101CE000DBF98DF807009DF807000146009140B12F
:101CF000FFE70098012825D0FFE70098022828D0A8
:101D00005CE043F6A000C4F202000068800BC0074C
:101D100080B1FFE743F6A000C4F202000068000BA8
:101D2000C00738B1FFE7099946F60040C0F2DC2051
:101D3000086006E0099941F20020C0F27A000860CC
:101D4000FFE742E0099941F20020C0F27A00086002
:101D50003BE043F60400C4F202000168C1F3805185
:101D600005910168C1F388110891016801F00F0124
:101D700007910068C0F3024144F65050C0F60000DD
:101D8000405C0690059830B9FFE741F20020C0F2B0
:101D90007A00049005E041F20020C0F27A0004903D
:101DA000FFE704980899A0FB0101079A069B5A4394
:101DB0000023FEF708FB0999086006E0099941F243
:101DC0000020C0F27A000860FFE743F60800C4F282
:101DD00002000168C1F303110391039A44F65651BE
:101DE000C0F60001895C0291099A1168029BD940F2
:101DF00051600168C1F382210391039A44F6405176
:101E0000C0F60001895C0291099A5168029BD94091
:101E1000D1600068C0F342300390039944F6485003
:101E2000C0F60000405C029009994868029AD040D0
:101E300088600AB080BD000082B0019000208DF85B
:101E40000300BDF8060043F60001C4F20201405849
:101E5000019901F01F01C840C00720B9FFE7002029
:101E60008DF8030003E001208DF80300FFE79DF8E3
:101E7000030002B07047000080B584B000200390DA
:101E80008DF80B00FFE71120FFF7D6FF0146002079
:101E90000129019008D0FFE703990020B1F5405FC8
:101EA00038BF01200190FFE70198C00720B1FFE78C
:101EB000039801300390E6E71120FFF7BDFF0128EA
:101EC00004D0FFE700208DF80B0003E001208DF81F
:101ED0000B00FFE79DF80B0004B080BD82B00190BD
:101EE0008DF803109DF8030001280FD1FFE701983A
:101EF00000F01F02012101FA02F3010C43F6000277
:101F0000C4F202028858184388500EE0019800F08D
:101F10001F02012101FA02F3010C43F60002C4F290
:101F20000202885898438850FFE702B070470000CB
:101F300082B08DF80700ADF80410ADF802208DF8DE
:101F400001309DF8070048B9FFE743F6A001C4F24D
:101F50000201086840F480500860FFE79DF8072000
:101F600043F60401C4F20201086802F0010220F401
:101F7000800040EA82500860BDF8042008686FF3D2
:101F80005F2247F6C073984340EA82100860BDF8AC
:101F90000220086862F3030008609DF801200868C9
:101FA00002F0070220F4E02040EA0240086002B09C
:101FB0007047000043F60001C4F20201086840F0D7
:101FC00001000860FFE743F60000C4F20200006869
:101FD000C0F34000012801D0FFE7F4E743F6080111
:101FE000C4F20201086820F003000860FFE743F62E
:101FF0000800C4F2020000688008800708B1FFE70B
:10200000F5E743F60001C4F2020108684FF6FF72DB
:10201000CFF6F2621040086043F60801C4F20201F4
:102020000020086043F60402C4F2020243F20201F7
:10203000C0F20301116043F6A001C4F2020108607E
:1020400043F60C01C4F202014FF41F000860704710
:1020500081B08DF803009DF8032043F60801C4F217
:102060000201086862F30100086000BF00BF00BF02
:1020700000BF00BF00BF00BF00BF00BF00BF00BF68
:1020800000BF00BF00BF00BF00BF00BF00BF00BF58
:1020900000BF01B07047000043F60800C4F2020020
:1020A0000068C0F38100704780B5042001F098FB00
:1020B00040F20000C2F2000000684DF68361C4F2F5
:1020C0001B31A0FB0110810C40F2C400C2F20000E1
:1020D000016000684FF47A71484340F2C001C2F2D7
:1020E0000001086080BD000083B0ADF80A00002048
:1020F0000190FFE7BDF80A0000285FD0FFE7BDF8B8
:102100000A00332812DBFFE740F2C000C2F20000F1
:102110000068322148434EF21401CEF200010860FB
:10212000BDF80A003238ADF80A0010E0BDF80A0028
:1021300040F2C001C2F20001096848434EF21401A6
:10214000CEF2000108600020ADF80A00FFE74EF271
:102150001801CEF20001002008604EF21001CEF20C
:102160000001086840F001000860FFE74EF210002F
:10217000CEF2000000680190FFE700209DF80410F7
:10218000C907009031B1FFE79DF806100120884390
:102190000090FFE70098C0070028E7D1FFE74EF264
:1021A0001001CEF20001086820F0010008604EF234
:1021B0001801CEF20001002008609BE703B07047D1
:1021C00080B582B0ADF806000020ADF80400FFE74E
:1021D000BDF80400BDF8061088420FDAFFE74FF49F
:1021E000FA700090FFF780FF0098FFF77DFFFFE790
:1021F000BDF804000130ADF80400E9E702B080BD8D
:1022000082B001908DF803109DF8032001990868B1
:1022100062F30000086002B07047000081B00090D7
:102220000098B0F1805F09D9FFE7009820F0704076
:1022300046F20461C4F20201086006E0009846F22A
:102240000441C4F202010860FFE701B070470000DA
:1022500083B00190002000900198B0F1805F07D911
:10226000FFE746F20060C4F202000068009006E05A
:1022700046F20040C4F2020000680090FFE70098B8
:102280000199084204D0FFE701208DF80B0003E01C
:1022900000208DF80B00FFE79DF80B0003B070479E
:1022A00082B001900091019908684BF6EF721040DE
:1022B0000860009802890199086810430860009836
:1022C000427C0199086802F0030220F4405040EA81
:1022D000023008600098C27B0199086802F003028E
:1022E00020F4406040EA822008600098827B0199D7
:1022F000086802F0030220F4407040EA02200860FF
:102300000098427B0199086802F0010220F08000E9
:1023100040EAC21008600098027B0199086802F048
:10232000010220F0400040EA821008600098027C20
:102330000199086802F0010220F0200040EA4210F2
:10234000086000984289019948684FF6FF739843E6
:1023500010444860009800680199886000984068BF
:102360000199C86002B0704783B0029001918DF866
:1023700003209DF8030030B1FFE7019A0299086835
:102380001043086005E0019A0299086890430860CC
:10239000FFE703B07047000081B00090009843F65B
:1023A0001441C4F20101086001B0704783B002908B
:1023B00000208DF80700009043F61440C4F201009D
:1023C0000068029908400090009820B1FFE70120C2
:1023D0008DF8070003E000208DF80700FFE79DF867
:1023E000070003B07047000080B582B001900091F3
:1023F000FFE741F20000C4F20100802101F018FC67
:1024000008B9FFE7F5E7BDF8041041F20000C4F297
:10241000010001F0EFFBFFE741F20000C4F2010010
:10242000402101F005FC08B9FFE7F5E7019802B08B
:1024300080BD000081B0009000994FF6FF700860E9
:1024400000990020887100990871009948710099DD
:102450000120C87101B0704783B002900191002043
:10246000ADF8000001980068ADF80200FFE7BDF884
:102470000200012862DBFFE7BDF80200C007002868
:1024800051D0FFE7BDF800004100032000FA01F33E
:10249000029A11689943116001998979BDF8002069
:1024A000520001FA02F3029A116819431160BDF853
:1024B0000020012101FA02F3029A51689943516008
:1024C00001990979BDF8002001FA02F3029A5168D6
:1024D00019435160BDF80010490000FA01F3029A57
:1024E0009168994391600199C979BDF80020520023
:1024F00001FA02F3029A916819439160BDF8001045
:10250000490000FA01F20299C8689043C860019836
:102510004079BDF80010490000FA01F20299C8683C
:102520001043C860FFE7BDF802004008ADF80200A4
:10253000BDF800000130ADF8000098E703B0704727
:1025400084B003908DF80B108DF80A2000200190C4
:1025500000909DF80A109DF80B2002F007029200EF
:10256000914001919DF80B10B0EBD10F15D0FFE712
:102570009DF80B0000F0070081000F2000FA01F227
:102580000399486A904348620398406A0199084356
:10259000009000980399486214E09DF80B0000F049
:1025A000070081000F2000FA01F20399086A9043A6
:1025B00008620398006A0199084300900098039903
:1025C0000862FFE704B0704781B000900098406A4D
:1025D000C0B201B07047000082B001908DF80310C6
:1025E0009DF803000199886202B0704780B588B0F9
:1025F000079006910592ADF81230069800210391DC
:10260000FFF7FEFD039A06980221FFF7ADFE05983D
:1026100007994862069807998A69801AB0FA80F08B
:10262000400900010885069807998969884205D103
:10263000FFE7079800682830029004E007980068D8
:1026400024300290FFE7029807990862BDF8120053
:1026500007994885069807992031FFF721FE0698CB
:10266000022101220192FFF77FFE01990698FFF7F0
:10267000C7FD08B080BD000082B001908DF8031046
:102680008DF802209DF8030060B9FFE79DF8022055
:102690000199086802F0010220F4804040EA82308B
:1026A00008600BE09DF802200199086802F0010221
:1026B00020F4004040EAC2300860FFE702B07047F3
:1026C00080B582B001900198C16900F00DF802B0A8
:1026D00080BD000080B582B001900198816900F052
:1026E00003F802B080BD000080B59CB01B901A9129
:1026F0001A9846F20841C4F20201884203D1FFE76A
:1027000002201990B7E01A9846F21C41C4F2020167
:10271000884203D1FFE720201890A9E01A9846F2DA
:102720003041C4F20201884204D1FFE74FF4007047
:1027300017909AE01A9846F24441C4F20201884286
:1027400004D1FFE74FF4005016908BE01A9846F240
:102750005841C4F20201884204D1FFE74FF400302F
:1027600015907CE01A9846F26C41C4F2020188424E
:1027700004D1FFE74FF4001014906DE01A9846F270
:102780008041C4F20201884204D1FFE74FF000709B
:1027900013905EE01A9846F20861C4F20201884282
:1027A00005D1FFE70220C1F2000012904EE01A9816
:1027B00046F21C61C4F20201884205D1FFE72020E5
:1027C000C1F2000011903EE01A9846F23061C4F266
:1027D0000201884206D1FFE740F20020C1F200006A
:1027E00010902DE01A9846F24461C4F2020188422A
:1027F00006D1FFE742F20000C1F200000F901CE09A
:102800001A9846F25861C4F20201884205D1FFE7E6
:102810000020C1F202000E900CE01A9946F26C62A0
:10282000C4F202024FF09050914208BF4FF0815025
:102830000E90FFE70E980F90FFE70F981090FFE7BC
:1028400010981190FFE711981290FFE712981390DB
:10285000FFE713981490FFE714981590FFE7159879
:102860001690FFE716981790FFE717981890FFE764
:1028700018981990FFE71998FFF7EAFC002800F074
:102880001E81FFE71A9802210022FFF76DFD1A98BA
:1028900046F20841C4F20201884203D1FFE7022058
:1028A0000D90B7E01A9846F21C41C4F2020188422A
:1028B00003D1FFE720200C90A9E01A9846F230419E
:1028C000C4F20201884204D1FFE74FF400700B907C
:1028D0009AE01A9846F24441C4F20201884204D1B7
:1028E000FFE74FF400500A908BE01A9846F25841E7
:1028F000C4F20201884204D1FFE74FF4003009908E
:102900007CE01A9846F26C41C4F20201884204D17C
:10291000FFE74FF4001008906DE01A9846F28041EE
:10292000C4F20201884204D1FFE74FF00070079023
:102930005EE01A9846F20861C4F20201884205D1AD
:10294000FFE70220C1F2000006904EE01A9846F21E
:102950001C61C4F20201884205D1FFE72020C1F2C8
:10296000000005903EE01A9846F23061C4F2020180
:10297000884206D1FFE740F20020C1F20000049037
:102980002DE01A9846F24461C4F20201884206D151
:10299000FFE742F20000C1F2000003901CE01A9829
:1029A00046F25861C4F20201884205D1FFE70020D7
:1029B000C1F2020002900CE01A9946F26C62C4F275
:1029C00002024FF09050914208BF4FF081500290A8
:1029D000FFE702980390FFE703980490FFE704984D
:1029E0000590FFE705980690FFE706980790FFE738
:1029F00007980890FFE708980990FFE709980A9060
:102A0000FFE70A980B90FFE70B980C90FFE70C98F4
:102A10000D90FFE70D98FFF701FC1B9A1A991068BB
:102A20009269891A18BF012100220092FFF724FE43
:102A300000991A98FFF7E4FB1B98C06801900438CE
:102A4000022805D3FFE701980638022834D334E082
:102A50001B9802891B994889801A48811B984089D4
:102A600038B9FFE71B9800682021012200F000F927
:102A700021E01B9802891B994868104448601B9804
:102A80004089B0F5807F04DBFFE71B99FF200881B8
:102A900004E01B9840891B990881FFE71B981A994D
:102AA00042680389FFF7A2FD1B98006840210122BC
:102AB00000F0DEF8FFE701E000E0FFE7FFE71CB011
:102AC00080BD000080B582B00190019800684FF48D
:102AD000807100F0B7F880B1FFE701991320087505
:102AE000019800684FF4807100F0A4F80198006824
:102AF0008021002200F0BCF8FFE7019800684FF445
:102B0000007100F09FF880B1FFE70199132008756C
:102B1000019800684FF4007100F08CF8019800688B
:102B20008021002200F0A4F8FFE7019800684FF42C
:102B3000806100F087F880B1FFE7019913200875E4
:102B4000019800684FF4806100F074F80198006803
:102B50008021002200F08CF8FFE7019800684FF414
:102B6000006100F06FF880B1FFE70199132008754C
:102B7000019800684FF4006100F05CF8019800686B
:102B80008021002200F074F8FFE7019800684FF4FC
:102B9000805100F057F880B1FFE7019913200875C4
:102BA000019800684FF4805100F044F801980068E3
:102BB0008021002200F05CF8FFE7019800684FF4E4
:102BC000005100F03FF880B1FFE70199132008752C
:102BD000019800684FF4005100F02CF8019800684B
:102BE0008021002200F044F8FFE702B080BD000021
:102BF00080B582B001900198C0680090072816D86F
:102C00000099DFE801F0040408080C0C101001988A
:102C100000F0CEF80CE0019800F02AFA08E00198E4
:102C200000F03EF804E0019800F0C4F900E0FFE78E
:102C300002B080BD82B00190009100980199C861F6
:102C400002B0704783B001900091019880690099AB
:102C5000084204D0FFE701208DF80B0003E00020BC
:102C60008DF80B00FFE79DF80B0003B070470000E4
:102C700083B0029001918DF803209DF8030030B1DC
:102C8000FFE7019A029908681043086005E0019A7D
:102C90000299086890430860FFE703B0704700009E
:102CA00080B584B00290029800681021FFF7CAFF37
:102CB000B8B1FFE7029800681021FFF7BBFF029848
:102CC000006820210122FFF7D3FF029800F02EF9BF
:102CD0000298408920B1FFE7029911200875FFE7AB
:102CE0005EE0029800688021FFF7ACFF68B3FFE761
:102CF0000298006840210022FFF7BAFF029840893D
:102D0000F0B1FFE702980190006800F09BFA0146DD
:102D10000198002200F056FA0298008D102807D181
:102D2000FFE70298006800210122FFF7A5FC06E0FA
:102D30000298006801221146FFF79EFCFFE703E0BE
:102D40000D208DF80F002FE029E002980068202167
:102D5000FFF778FF10B3FFE7029800682021FFF724
:102D600069FF029800F002F9029800681021FFF74D
:102D700069FF30B1FFE7029800681021FFF75AFFA2
:102D8000FFE7029800F0D2F802980068F6210022CE
:102D9000FFF76EFF029901200861FFE7FFE7FFE7F9
:102DA00000208DF80F00FFE79DF80F0004B080BDF4
:102DB00080B584B00290029800681021FFF742FFAE
:102DC00088B1FFE7029800681021FFF733FF0298EF
:102DD00000F0ACF80298408920B1FFE70299112079
:102DE0000875FFE79AE0029800680221FFF72AFFC2
:102DF00088B1FFE7029B186859684A1C5A60097835
:102E0000FFF7EAFB0299488901384881029908894D
:102E10000138088181E0029800688021FFF712FFE5
:102E2000C0B1FFE70298008978B9FFE702984089AE
:102E300058B1FFE702980190006800F003FA0146DC
:102E40000198002200F0BEF903E00D208DF80F007C
:102E500068E061E0029800680421FFF7F3FE90B19A
:102E6000FFE702980068FFF7AFFB029B59684A1C16
:102E70005A60087002994889013848810299088986
:102E80000138088147E0029800684021FFF7DAFE28
:102E9000B0B1FFE70298408968B9FFE7029800687F
:102EA0004068400EC00728B9FFE70298006800F0AC
:102EB000BFF9FFE703E00E208DF80F0032E029E0B4
:102EC000029800682021FFF7BDFE10B3FFE70298CB
:102ED00000682021FFF7AEFE029800F047F8029844
:102EE00000681021FFF7AEFE30B1FFE702980068DE
:102EF0001021FFF79FFEFFE7029800F017F80298F5
:102F00000068F6210022FFF7B3FE02990120086154
:102F1000FFE7FFE7FFE7FFE7FFE7FFE700208DF8A8
:102F20000F00FFE79DF80F0004B080BD80B582B0B0
:102F30000190019800680221FFF784FE28B1FFE7A5
:102F40000198016800208862FFE70198006801216C
:102F5000FFF778FE38B9FFE701980168886940F00B
:102F600001008861FFE702B080BD000081B00090E1
:102F700000980168486840F2FF329043486000982A
:102F80000168486820F480504860009801684868EB
:102F900020F47F00486000980168486820F0807045
:102FA000486000980168486820F48060486001B07B
:102FB0007047000080B582B0019001980068102130
:102FC000FFF740FE30B1FFE7019800681021FFF7DE
:102FD00031FE49E0019800680821FFF733FE30B167
:102FE000FFE7019800680821FFF724FE3BE0019805
:102FF00000682021FFF726FEA0B3FFE701980068D4
:103000002021FFF717FE01980068FE210022FFF73C
:103010002FFE0198FFF7AAFF0198FFF787FF01989D
:1030200000680421FFF70EFEC0B1FFE701980068B9
:10303000FFF7CAFA019B59684A1C5A600870019848
:103040000089012809DBFFE7019948890138488197
:103050000199088901380881FFE7FFE701990120FC
:103060000861FFE7FFE7FFE7002002B080BD000036
:1030700080B582B00190019800681021FFF7E2FD51
:10308000A0B1FFE70198408948B9FFE70198FFF731
:103090004DFF019800681021FFF7CCFD05E0019875
:1030A00000681021FFF7C6FDFFE788E0019800687F
:1030B0000821FFF7C7FD30B1FFE70198006808213C
:1030C000FFF7B8FD7AE0019800680221FFF7BAFD2A
:1030D000B8B1FFE701984089012811DBFFE7019AA9
:1030E0005068411C51600078019909688862019913
:1030F0000889013808810199488901384881FFE72A
:103100005BE0019800680421FFF79CFDC0B1FFE778
:1031100001984089012812DBFFE701980068FFF75A
:1031200053FA019B59684A1C5A60087001994889F2
:10313000013848810199088901380881FFE73BE09F
:10314000019800682021FFF77DFDA0B3FFE70198FB
:1031500000682021FFF76EFD01980068FE21002223
:10316000FFF786FD0198FFF701FF0198FFF7DEFEEC
:10317000019800680421FFF765FDC0B1FFE70198E1
:103180000068FFF721FA019B59684A1C5A600870D1
:1031900001980089012809DBFFE701994889013876
:1031A00048810199088901380881FFE7FFE7019903
:1031B00001200861FFE7FFE7FFE7FFE7FFE70020E7
:1031C00002B080BD80B584B00390ADF80A10ADF8B0
:1031D000082003984089B0F5807F13DBFFE703994F
:1031E000FF200881039A1068BDF80A101289BDF803
:1031F0000830EC46CCF80030D2B24FF0807300F0CB
:1032000029F813E00398408903990881039A10680C
:10321000BDF80A101289BDF80830EC46CCF8003031
:10322000D2B24FF0007300F015F8FFE704B080BD94
:1032300081B000900099486840F48040486001B037
:103240007047000081B00090009840686FF39F20A5
:1032500001B0704780B585B084460798CDF810C09E
:10326000ADF80E108DF80D200293ADF8060004980D
:1032700040680090009849F60001CFF600410840F0
:103280000090BDF80E0002990843BDF806100143F6
:103290000098084300909DF80D10009840EA014006
:1032A000009000980499486005B080BD00000000BF
:1032B00080B59EB000200E901D901C90ADF86E0061
:1032C0001A9000F08DF90320049000F06DF90120B0
:1032D000C0F2400001211091FEF700FE1099042079
:1032E000C0F24400FEF7FAFD10994FF44010FEF7CB
:1032F000F5FD10990820C0F24400FEF7EFFD10998B
:103300000120C0F23000FEF7E9FDFEF7CDFE40F2ED
:103310000040C4F2000003904FF47A714FF4E14290
:1033200000F07AFA03980E9900F020FB0DF161008D
:10333000019000F039FC019A03980E99109B4FF010
:10334000060C8DF861C08DF862108DF866308DF82E
:1033500064100221029100F025FB029903984FF4BA
:10336000FA7200F0D5FA0398109A04210D9100F03A
:1033700065FA0398109900F02BFC13A80590FFF74D
:1033800059F8049A05990E98109B8DF853308DF8D2
:1033900050008DF85220202213928DF85100002009
:1033A000C4F202000790FFF757F807980021C0F217
:1033B000022112914FF40071119111A90691FFF7AA
:1033C0004BF807980921089107220992FFF7B8F8EE
:1033D00006990798FFF740F807980899099AFFF7A8
:1033E000AFF80E9B109A41F20000C4F201000A905F
:1033F0004FF4E13100F032FC0A98109900F0D0FC53
:103400000A98109900F0BAFC0A98109900F0FEFB97
:1034100044F66650C0F60000FDF74EF80DF15A0074
:103420000B90FEF76DFA0B980E998DF85A108DF8E7
:103430005C108DF85D108DF85E108DF85F108DF8C2
:103440006010FEF7F7F90DF156000C90FEF7A8F9A1
:103450000C990E9A10988DF856008DF857208DF81B
:1034600058208DF8590042F20000C4F201000F907C
:10347000FEF764F90E990F98FEF768FB0D9B0F9805
:10348000109A0521FEF778FA0E990F98FEF74AFB7D
:103490000E990F98FEF732FB0F981099FEF71EFB5E
:1034A0000F981099FEF740FAFFE742F20000C4F2CD
:1034B00001004021FEF746FA08B9FFE7F5E742F2BE
:1034C0000000C4F20100FEF779F9FFE742F20000C4
:1034D000C4F20100FEF77CF908B1FFE7F6E742F21B
:1034E0000000C4F20100FEF787F9FFE742F2000096
:1034F000C4F20100FEF78AF908B1FFE7F6E7FFE73B
:1035000042F20000C4F201000221FEF71BFA01287A
:103510003ED1FFE742F24C00C4F201000068ADF872
:103520006E00BDF86E0001F0EFF941EC100B9FED5D
:103530001A1B53EC112B51EC100B01F0FDF941EC6F
:10354000100B51EC100B9FED160B53EC102B01F0F0
:103550007FF841EC100B51EC100B01F047F81C9078
:103560001C9801F0E7FA41EC100B53EC102B44F6D9
:10357000BC50C0F60000FCF79FFF1A9944F6B25009
:10358000C0F60000FCF798FF0120FEF719FEFFE7E8
:10359000B6E700BF00BF00BF6666666666660A40A3
:1035A0000000000000FEAF4080B582B08DF807003B
:1035B0009DF80700FEF7A0F802B080BD80B5082096
:1035C000FEF7F4FE50B1FFE740F2FC01C2F2000149
:1035D000012008800820FEF7DFFEFFE780BD000025
:1035E00080B584B0FEF7E6FC1C20C0F2400001214B
:1035F0000391FEF773FC039947F21002C4F2000234
:10360000106861F30200106043F66042C4F20202E7
:10361000106861F3010010600846FEF701FBFFE748
:10362000FEF72AFC08B9FFE7FAE79021012202928F
:10363000022301931046FEF77BFC01980299FEF7E6
:10364000EFFAFFE71920FEF7F7FB012801D0FFE7AB
:10365000F8E70020FEF78CFA04200090FEF7B0FA9D
:103660000098FEF799FA0120FEF7BEFA0220FEF755
:10367000EFFCFFE7FEF710FD022801D0FFE7F9E7B6
:103680000020FEF7B1FA00F003F804B080BD00009E
:1036900080B58AB0002009900890079006900590A8
:1036A00004900390FEF7F8FC8DF80B009DF80B00DA
:1036B0000146019140B1FFE7019801282BD0FFE7B7
:1036C0000198022831D068E043F6A000C4F202005D
:1036D0000068800BC00798B1FFE743F6A000C4F272
:1036E00002000068000BC00750B1FFE740F2000184
:1036F000C2F2000146F60040C0F2DC20086009E09A
:1037000040F20001C2F2000141F20020C0F27A0052
:103710000860FFE74BE040F20001C2F2000141F215
:103720000020C0F27A00086041E043F60400C4F2D1
:1037300002000168C1F3805106910168C1F388114C
:103740000991016801F00F0108910068C0F302417E
:1037500044F6CD50C0F60000405C0790069830B9A2
:10376000FFE741F20020C0F27A00059005E041F247
:103770000020C0F27A000590FFE705980999A0FBA8
:103780000101089A079B5A430023FCF71CFE40F2F4
:103790000001C2F20001086009E040F20001C2F23B
:1037A000000141F20020C0F27A000860FFE743F612
:1037B0000800C4F202000068C0F3031004900499EA
:1037C00044F6D350C0F60000405C039040F2000184
:1037D000C2F200010868039AD04008600AB080BDB8
:1037E00081B08DF803009DF80300042809D1FFE79C
:1037F0004EF21001CEF20001086840F004000860AB
:1038000008E04EF21001CEF20001086820F004003A
:103810000860FFE701B0704783B002900191009209
:1038200001980299C86200980299886202994869D1
:1038300040F00100486103B07047000083B002907F
:103840008DF807108DF806209DF80700ADF80400EC
:10385000BDF8040001460091062856D80099DFE81B
:1038600001F0040C1824303C48009DF80620029911
:10387000086A62F30000086248E09DF80620029999
:10388000086A02F0010220F0040040EA82000862A7
:103890003CE09DF806200299086A02F0010220F03F
:1038A000100040EA0210086230E09DF806200299FC
:1038B000086A02F0010220F0400040EA821008622B
:1038C00024E09DF806200299086A02F0010220F423
:1038D000807040EA0220086218E09DF806200299F4
:1038E000086A02F0010220F4806040EA8220086247
:1038F0000CE09DF806200299086A02F0010220F40B
:10390000805040EA0230086200E0FFE703B07047F1
:1039100085B004908DF80F1002929DF80F00ADF85D
:103920000600BDF806000146009107281AD8009944
:10393000DFE801F0041808180C1810140298049914
:10394000486310E00298049988630CE00298049997
:10395000C86308E002980499086404E00298049996
:10396000486700E0FFE705B07047000082B00190B3
:103970008DF803109DF803200199086802F00302F6
:1039800020F4407040EA0220086002B07047000056
:1039900082B0019000910098C0430199086102B083
:1039A0007047000087B006908DF817100492002031
:1039B000ADF80E00ADF80C00ADF80A009DF8170048
:1039C0000830ADF808009DF817000930ADF8060082
:1039D00004984078BDF808108840ADF80E000498AF
:1039E0008078BDF806108840ADF80C00BDF80610D0
:1039F000012000FA01F3069A516899435160BDF81D
:103A00000C30069A516819435160BDF8081000FA4D
:103A100001F20699486890434860BDF80E20069967
:103A20004868104348609DF81700ADF80A00BDF8DB
:103A30000A0001460091072842D80099DFE801F00A
:103A4000044010401C402834049802780699886984
:103A500002F0070220F0700040EA0210886130E0B6
:103A6000049802780699886902F0070220F4E04081
:103A700040EA0230886124E0049802780699C86917
:103A800002F0070220F0700040EA0210C86118E05E
:103A9000049802780699C86902F0070220F4E04011
:103AA00040EA0230C8610CE0049802780699086F79
:103AB00002F0070220F0700040EA0210086700E000
:103AC000FFE79DF8170040000130ADF808009DF8B1
:103AD0001710032000EB4100ADF806000498C078F1
:103AE000BDF808108840ADF80E0004980079BDF8C4
:103AF00006108840ADF80C00BDF80610012000FA51
:103B000001F3069A116A99431162BDF80C30069AC6
:103B1000116A19431162BDF8081000FA01F3069A00
:103B2000116A99431162BDF80E30069A116A194361
:103B300011629DF817104900ADF808109DF8171094
:103B4000022202EB4101ADF80610049949799DF873
:103B500017305B009940ADF80E10049989799DF8F3
:103B6000173002EB43029140ADF80C10BDF806107F
:103B700000FA01F3069A116A99431162BDF80C30FC
:103B8000069A116A19431162BDF8081000FA01F291
:103B90000699086A90430862BDF80E200699086AE3
:103BA0001043086207B0704781B000900099002070
:103BB000087000994870009988700099C870009941
:103BC0000871009948710099887101B07047000030
:103BD00082B001908DF803109DF803200199486C84
:103BE00002F0010220F4004040EAC230486402B012
:103BF0007047000082B00190ADF80210BDF80200DD
:103C00006FF35F200199486002B0704782B0019065
:103C10008DF803109DF803200199C86802F0010295
:103C200020F4005040EA4230C86002B07047000003
:103C300083B001900091019800680099084204D077
:103C4000FFE701208DF80B0003E000208DF80B004A
:103C5000FFE79DF80B0003B07047000080B58AB005
:103C6000099008918DF81F208DF81E3003A8FEF7EB
:103C70002BF8099841F20001C4F20101884208D0F2
:103C8000FFE7099841F20041C4F20101884203D1E3
:103C9000FFE70598029002E006980290FFE702987D
:103CA00000EB800040000899B0FBF1F00190019812
:103CB0004CF6CD41CCF6CC41A0FB0121C90801EB6B
:103CC0008101A0EB410004280AD8FFE701984CF6D7
:103CD000CD41CCF6CC41A0FB0110C00801900BE017
:103CE00001984CF6CD41CCF6CC41A0FB010101205E
:103CF00000EBD1000190FFE7BDF804200999886826
:103D00004FF6FF739843104488609DF81F0058B920
:103D1000FFE70999C86840F08050C8600999C868F1
:103D200020F48050C8601BE09DF81F0001280BD1D3
:103D3000FFE70999C86820F08050C8600999C868F1
:103D400020F48050C8600AE00999C86820F08050CB
:103D5000C8600999C86840F48050C860FFE7FFE771
:103D60009DF81E200999086902F0030220F44050D2
:103D700040EA023008610AB080BD000082B00190C4
:103D80008DF803109DF803200199C86802F0010224
:103D900020F0040040EA8200C86002B070470000D2
:103DA00082B001908DF803109DF803200199C86836
:103DB00002F0010220F0080040EAC200C86002B030
:103DC00070475FEA400C08BF91F0000F4FEA8C2368
:103DD0004FEAC12243EA51514FEA1C5018BF00F587
:103DE000F0404FEA300018BF41F000415FEA6C5CE0
:103DF00000F02980BCF1FF3F08BF40F080407047D1
:103E0000130C06BF12044FF0100C4FF0000C130EF1
:103E100004BF12020CF1080C130F04BF12010CF1C5
:103E2000040C930F04BF92000CF1020CD30F04BFDB
:103E300052000CF1010C11464FF00002A0F11F00DE
:103E4000A0EB0C00704711F0004F08BF704731F035
:103E500000413FF4D5AF0B0C06BF09044FF0100C26
:103E60004FF0000C0B0E04BF09020CF1080C0B0FF5
:103E700004BF09010CF1040C8B0F04BF89000CF185
:103E8000020CCB0F04BF49000CF1010CCCF1200354
:103E900022FA03F341EA030102FA0CF2A0EB0C0050
:103EA00000F101007047000023F07F4720F07F4CB5
:103EB00080EA030000F00040ACEB070303F57C53FD
:103EC00003F1FF032DE9804909B44FEA144324EAC2
:103ED00003484FEA154B25EA0B4E0FF2042606EB7A
:103EE00013273E7803FB0667C7F5000707FB06F6B6
:103EF0004FEAD64606F102064FEA543707FB066C36
:103F0000CCF1005C4FEA1C472CEA074C0CFB06F591
:103F100007FB06F404EB15464FEA961649085FEADC
:103F2000320234BF00204FF000404FEAD13706FB89
:103F300007FC4FEA1C4C0CFB0BF7D21B03FB0CF7E6
:103F400061EB07010CFB0EF7B0EB074072EB174279
:103F50000CFB08F734BFA2EB0742B2EB074261EB60
:103F600017414FEA0C444FEA910706FB07FC4FEA62
:103F70001C4C0CFB0BF7B0EBC74072EB573203FB4A
:103F80000CF734BFA2EBC742B2EBC74261EB57312B
:103F90000CFB0EF7B0EBC70072EB57720CFB08F787
:103FA00034BFA2EBC702B2EBC70261EB57714FEA15
:103FB000816141EA92114FEA826242EA90124FEA2D
:103FC000806004EBCC04039F4FEAD13706FB07FC6B
:103FD0004FEA1C4C0CFB0BF7D21B03FB0CF761EBFD
:103FE00007010CFB0EF7B0EB074072EB17420CFB1E
:103FF00008F734BFA2EB0742B2EB074261EB17416F
:104000004FEA8C5504EB9C244FEA910706FB07FC12
:104010004FEA1C4C0CFB0BF7B0EBC74072EB57326E
:1040200003FB0CF734BFA2EBC742B2EBC74261EB14
:1040300057310CFB0EF7B0EBC70072EB57720CFB5D
:1040400008F734BFA2EBC702B2EBC70261EB5771AE
:104050004FEA816141EA92114FEA826242EA90128C
:104060004FEA806015EB4C2544F100044FEAD1374C
:1040700006FB07FC4FEA1C4C0CFB0BF7D21B03FBA7
:104080000CF761EB07010CFB0EF7B0EB074072EB8E
:1040900017420CFB08F734BFA2EB0742B2EB074212
:1040A00061EB17414FEA813141EA92414FEA823296
:1040B00042EA90424FEA80304FEA0C7615EB1C152D
:1040C00044F1000448EA03434EEA0B484FF0000E67
:1040D000B2EB080C71EB030724BF624639464EEB86
:1040E0000E0E4FF0000B0018524149414BEB0B0BE9
:1040F000B2EB080C71EB03077BF1000B24BF6246A7
:1041000039464EEB0E0E4FF0000B0018524149415C
:104110004BEB0B0BB2EB080C71EB03077BF1000BC5
:1041200024BF624639464EEB0E0E51EA020718BF15
:1041300046F0010616EB0E7655F1000254F100012F
:1041400003D5BDE88901BDE80088BDE88901BDE867
:104150000048B619524141EB0101A3F10103704738
:1041600080807F7E7D7C7B7A7978777676757473B4
:10417000727171706F6E6E6D6C6C6B6A6A69686873
:10418000676666656464636362616160605F5F5E09
:104190005E5D5D5C5C5B5B5A5A595958585757567F
:1041A00056555555545453535252525151505050E4
:1041B0004F4F4F4E4E4D4D4D4C4C4C4B4B4B4A4A36
:1041C0004A4949494848484747474746464645457A
:1041D00045444444444343434342424242414141B3
:1041E0009C46002B30D477002BD04FEA37071CB504
:1041F00003B44FF010004FF01001BAF1000F06D0D9
:10420000BCF1000FDCBF40F0080040F008014FF0A7
:1042100000000FBCBDE810400BF1010BBBF1010F1A
:1042200008BF5FEA170722BF12F1010211F1010175
:104230004FF0004143F1000300F0004043EA00006A
:104240007047F9D35708D0E746EA06464FEA1646C4
:1042500013F1400F1FDD13F1200FDFBF16430A4695
:10426000002120335B42BED0C3F1200746EA064658
:104270004FEA164602FA07F746EA070622FA03F261
:10428000C3F1200701FA07F742EA070221FA03F116
:104290004FF00003A7E746EA020646EA06464FEA61
:1042A000164646EA0106BCBF46EA0646360C4FF003
:1042B00000034FF000024FF0000194E72DE9804C1D
:1042C00070B49A46934691E8380007C831EA400C2A
:1042D00048BF34EA430C03D5FFF7E6FDFFF780FF44
:1042E000F0BCBDE8008C2DE9804C70B49A46934632
:1042F00091E8380007C810F0804F08BF13F0804FD6
:1043000003D100F005F8FFF76BFFF0BCBDE8008CAF
:1043100020F07F4723F07F4C80EA030000F000404C
:1043200007EB0C03A3F57C53A3F1FE0392F0000FFF
:1043300000F0B38095F0000F00F077802DE901497F
:104340004FEA114021EA00484FEA144624EA0647A2
:1043500000FB06FC08FB06F607FB08F818EB06480E
:104360004CEB164C00FB07F718EB07484CEB1740DB
:104370004FEA124B22EA0B4E4FEA154625EA064752
:104380000BFB06FC0EFB06F607FB0EFE1EEB064EB5
:104390004CEB164C0BFB07F71EEB074E4CEB174B89
:1043A00018EB0B0840F1000018EB0E0B58EB00085F
:1043B00040F100008F1A4FF000014FF000063CBFA3
:1043C000C943661B14BFB5EB040C00213CBFC943B5
:1043D000F61B4FEA174427EA04454FEA1C472CEA2C
:1043E000074C04FB076205FB07F70CFB05F616EB11
:1043F000074642EB174204FB0CFC16EB0C4642EB63
:104400001C421BEB060658EB020241414EEA8E0E9F
:1044100046EA9E0601D5BDE80189B619524141EB35
:104420000101A3F10103BDE801894FEA144524EA23
:1044300005464FEA114721EA074C05FB07F406FB46
:1044400007F70CFB06F111EB074144EB174405FBA2
:104450000CFC11EB0C4144EB1C444FEA124722EADE
:10446000074C05FB07F206FB07F70CFB06F616EBFD
:10447000074642EB174205FB0CFC16EB0C4642EBE1
:104480001C456A1854F1000148BF7047B6195241E3
:1044900041EB0101A3F10103704795F0000F37D004
:1044A0004FEA114221EA02464FEA144724EA074C38
:1044B00002FB07F106FB07F70CFB06F414EB0744BD
:1044C00041EB174102FB0CFC14EB0C4441EB1C418B
:1044D0004FEA154725EA074C02FB07F506FB07F7ED
:1044E0000CFB06F616EB074645EB174502FB0CFCEA
:1044F00016EB0C4645EB1C42121951F1000148BF66
:104500007047B619524141EB0101A3F10103704715
:104510004FEA144524EA05464FEA114721EA074CC1
:1045200005FB07F106FB07F70CFB06F212EB07424F
:1045300041EB174105FB0CFC12EB0C4251EB1C410B
:104540004FF0000648BF7047921841EB0101A3F1FC
:104550000103704703B401984100009850EAC1205C
:1045600018BF04204A0D18BF40F0010040F2FF724E
:10457000B2EB515F08BF40F00200012808BF0520E0
:1045800002B0704730380A2801D20120704700205D
:104590007047000010B500290AD00878002807D01D
:1045A00005487844FCF7C8FF002801D0002010BD62
:1045B0000248784410BD0000620800005A0800005C
:1045C00010B500290AD00878002807D0054878449B
:1045D000FCF7B2FF002801D0002010BD024878444B
:1045E00010BD0000520800004A08000021F00042FF
:1045F00001F00043A2F16052B2F5801F28BFD2F152
:104600007F6C0BD95FEA001C43EAC20242EB507098
:1046100018BF704728BF20F001007047B2F5801F17
:10462000BCBF184670474FEA410C1CF5001F02D270
:10463000084600F0FDBA70B500F028FA00000089C5
:10464000FFF7F6BF4FF00040A0F580007047000074
:104650002DE9C04130B4DFF8A8C23CEA111418BFFC
:104660003CEA131400F0F0801CEA111481EA0305FF
:1046700044EAD57418BF1CEA131500F0CB80A4EBF4
:10468000050404F17F7404F500344FF0004545EA59
:10469000C12145EAC32341EA505143EA52534FEA4C
:1046A000C0204FEAC222994208BF904200F0A08089
:1046B0004FEA13650FF24816765D4FEA134506FB85
:1046C00005F7C7F1807706FB07F74FEAD737A7FB57
:1046D00003687642A7FB06CEC8F5803838BFA8F13C
:1046E000010807FB08E6A6FB028C4FF0000EE6FB74
:1046F00003CED8F100086FEA0C0C5CF1000C6FEAF5
:104700000E0E4EF1004EA6FB0C584FF00007E6FBD4
:104710000E87A1FB08C6A0FB07CE16EB0E064FF0D6
:10472000000545F10005E1FB076515F1E04E7EBF90
:10473000A4F580345FEA46066D4116F1800745F125
:1047400000054FEA172747EA05674FEA15254FEAA4
:104750000666A6F1DE46B6F1805F20D9384605EB45
:10476000C47124F0010C01EB0C11BCF1FE6F02D8F6
:10477000F0BCBDE8008124425CBF01F5801E9EEACA
:10478000C47F02D4F0BCBDE80081244200F139802E
:10479000A1F1C041F0BCBDE8004100F0C5B94FEA4D
:1047A000D02040EA41504FEAD1214FEAD22242EADA
:1047B00043524FEAD323A7FB028607FB036605FBA0
:1047C00002661EEA0E0F58BFA6EB0056B6EB005667
:1047D0004FEA520E4EEAC37E18EB0E0E56EB530E06
:1047E000BCD518EB02085E417F1C55F10005B5E70A
:1047F0004FF480154FF000074FF000064FF000080F
:10480000ACE701F1C04101F000414FF00000F0BC05
:10481000BDE800810CEA131511EA0C1F00D00CE072
:1048200013EA0C1F00F025804FF0000081EA03011D
:1048300001F00041F0BCBDE80081F0BCBDE80041E2
:1048400081EA030100F070B9F0BCBDE8004170B529
:1048500000F01CF9097EFC3E00F007B84FF00000A4
:1048600081EA030101F00041704781EA030100F091
:104870005BB9F0BCBDE8004122494FF00000704731
:10488000FFFDFBF9F7F5F4F2F0EEEDEBE9E8E6E415
:10489000E3E1E0DEDDDBDAD8D7D5D4D3D1D0CFCD9C
:1048A000CCCBCAC8C7C6C5C4C2C1C0BFBEBDBCBBD5
:1048B000BAB9B8B7B6B5B4B3B2B1B0AFAEADACABD0
:1048C000AAA9A8A8A7A6A5A4A3A3A2A1A09F9F9EAA
:1048D0009D9C9C9B9A99999897979695959493935C
:1048E000929191908F8F8E8E8D8C8C8B8B8A8989F3
:1048F0008888878786858584848383828281818076
:104900000000FF070000F87F10F0004248BF40425F
:10491000B0FA80F310FA03F10AD0C3F11D0303F5D6
:10492000806302EB03524FEA415002EBD121704702
:104930004FF000007047000070B5DFF848C11CEA76
:10494000111E1EBF1CEA13159EEA0C0F95EA0C0FF0
:1049500000F06F8081EA03044EEAD47EAE4421EA7F
:104960004C1123EA4C1341F4801143F48013AEF14F
:104970007F7EA1FB024CA0FB0365361955EB0C05AD
:10498000A1FB034C4CF10003A0FB021C16EB0C0630
:10499000654153F10003094218BF46F0010613F4C4
:1049A000007F0BD14FEA03314FEA053041EA155140
:1049B00040EA165034036FF003020AE04FEAC321C5
:1049C0004FEAC52041EA555140EA5650F4026FF0D3
:1049D000020202EB2E4201EB025585EACE710AD0AB
:1049E0005FEA440C18BF24F0004450F1000041F18C
:1049F000000120EAD47040F2FE7C624500D270BD16
:104A0000A84214BF4FF080444FF04044002E08BF2E
:104A10000024BEF1806FA8BFA1F1C041BDE8704085
:104A200080F2828001F1C04101F000414FF00000AE
:104A300070470CEA13159EEA0C0F18BF95EA0C0F8D
:104A400006D081EA030E4FF000000EF0004170BD69
:104A500000F01CF88900013E00F007B800F009B82A
:104A60004FEA430C5FEA5C5C08D081EA030100F086
:104A70005BB84FEA410C5FEA5C5CF6D102494FF04B
:104A8000000070470000FF070000F87F0EF1020EE3
:104A90002EF0030E5EF8046B364205D4012A43EB78
:104AA000030515F5001F12D8012841EB010C1CF578
:104AB000001F0CD80ED14FEAD17C0CEB4C0C0CF142
:104AC000020C15F5001F08BF4CEBD37C04E04FF03F
:104AD000080C01E04FEAD37C0CEB4C0526FA05F6F6
:104AE00006F00706B6F1040C06D20EEB860CBDE804
:104AF00070404CF0010C6047DFE80CF0090B02023B
:104B00004FF00041A1F500214FF0000070BD1946A3
:104B10001046012851EB010418BFD4F5001484BFDE
:104B2000002001F0004170BD0808A0F500114FEA17
:104B30003101704743004FEAD30C4FEA3C0C43402D
:104B40001FBF40070CF1605113F0FE4F70471CF07F
:104B5000006F03D10CF00041002070470CF00043BF
:104B600043EA507040EACC0010B500F00EF800BFE8
:104B7000000000924FEA0001FFF7D6BF4FF000415E
:104B8000A1F500214FF0000070470EF1020E2EF04B
:104B9000030E5EF8044B244204D44FEA4102B2F102
:104BA0007F4F11D84FEA4003B3F17F4F0CD80ED19D
:104BB0004FEAD07C0CEB4C0C0CF1020CB2F17F4FA5
:104BC00008BF4CEBD17C04E04FF0080C01E04FEA49
:104BD000D17C0CEB4C0324FA03F404F00704B4F189
:104BE000040C06D20EEB840CBDE810404CF0010C16
:104BF0006047DFE80CF0070802024FF00040A0F524
:104C0000800010BD0846420018BFD2F1807288BFF4
:104C100000F0004010BDF1EE100A4FF6FF71C0F237
:104C2000C03120EA010040F04070E1EE100A704708
:104C3000FF2141EAD050C0057047FCF769B8FCF786
:104C40009DB9000000000000000000003031323348
:104C500034353637383941424344454640305800B0
:104C600030313233343536373839616263646566E2
:104C7000403078000400000800000000000000023E
:104C800000010000103031323334353637383961A5
:104C9000626364656678700030313233343536379C
:104CA0003839414243444546585000000240000014
:104CB000000000A00000000005400000000000C847
:104CC000000000000C4000000000409C00000000BC
:104CD000194000000020BCBE00000000344000006D
:104CE000BFC91B8E00000004B5400000504BCFD060
:104CF0006607E2CF010000006C4100003E8251AA2D
:104D0000DFEEA73401000000D9420000DCB5A0E2CC
:104D10003A301F97FFFFFFFFB4450000FD25A0C8F4
:104D2000E9A3C14FFFFFFFFFFF3F0000000000802D
:104D300000000000FF3F00000000008000000000B5
:104D4000000000000102030400000000010203044F
:104D50000102040810200000000000000000010211
:104D60000304060708097573617274207072696E16
:104D70007466206578616D706C653A207265746147
:104D800072676574207468652063206C6962726163
:104D90007279207072696E74662066756E637469CC
:104DA0006F6E20746F207468652075736172740D66
:104DB0000A00636F756E742025640A00566F6C7468
:104DC000616765203A2025322E32660A000102040E
:104DD000081020000000000000000001020304068B
:104DE00007080900304F00080000002008000000FC
:104DF00070020008384F000808000020F806000084
:104E0000900200081C00000043000000F8FFFFFFB4
:104E10000C0000000E0000000F0000002E0000003B
:104E20001001000043000000F8FFFFFF0040404079
:104E3000404040404040414141414140404040406D
:104E40004040404040404040404040404005020219
:104E500002020202020202020202020202202020D8
:104E60002020202020202002020202020202909034
:104E70009090909010101010101010101010101032
:104E80001010101010101010020202020202888886
:104E90008888888808080808080808080808080892
:104EA000080808080808080802020202400000007A
:104EB00000000000000000000000000000000000F2
:104EC00000000000000000000000000000000000E2
:104ED00000000000000000000000000000000000D2
:104EE00000000000000000000000000000000000C2
:104EF00000000000000000000000000000000000B2
:104F000000000000000000000000000000000000A1
:104F10000000000000000000000000000000000091
:104F20000000000000000000000000000000000081
:084F300000127A0000000000ED
:040000050800020DE0
:00000001FF
