:020000040800F2
:10000000C8060020D9020008DD040008B504000875
:10001000D904000885040008C50500080000000098
:10002000000000000000000000000000E5040008DF
:10003000A904000800000000E1040008E904000829
:10004000F3020008F3020008F3020008F3020008BC
:10005000F3020008F3020008F3020008F3020008AC
:10006000F3020008AD040008F3020008F3020008E0
:10007000F3020008F3020008F3020008F30200088C
:10008000F3020008F3020008F3020008F30200087C
:10009000F3020008F3020008F3020008F30200086C
:1000A000F3020008A9050008F3020008F3020008A3
:1000B000F3020008F3020008F3020008F30200084C
:1000C000F3020008C9040008B9040008F30200089C
:1000D000F3020008F3020008F3020008F30200082C
:1000E000F3020008F3020008F3020008F30200081C
:1000F000F3020008F3020008F3020008F30200080C
:10010000F3020008F3020008F3020008F3020008FB
:10011000F3020008F3020008F3020008F3020008EB
:100120008904000899040008F3020008F30200089B
:10013000F3020008F3020008F3020008F3020008CB
:10014000F3020008F3020008F3020008F3020008BB
:10015000F3020008F302000800000000F3020008A8
:10016000F3020008F3020008000000000000000095
:10017000F3020008F3020008F30200080000000088
:1001800000000000F3020008F3020008F302000878
:10019000F302000800000000000000000000000062
:1001A000000000000000000000000000F302000852
:1001B000F302000800000000F30200080000000045
:1001C000000000000000000000000000000000002F
:1001D0000000000000000000F3020008F302000825
:1001E000F3020008F3020008F3020008F30200081B
:1001F000F3020008F3020008F3020008F30200080B
:10020000F3020008F3020008F302000800F002F80D
:1002100000F052F814A696E8000CB244B344DA4554
:1002200001D100F049F8BAE80F000FA696E83000B7
:10023000A5EB040504EB0607AAEB0704A7F10107E9
:100240004FEA15154FEA3414A4F10104AC4201D36E
:1002500000F032F813F0010F18BFFB1A43F001034E
:1002600000F001F8DBE7184784200000A42000001C
:10027000103A24BF78C878C1FAD8520724BF30C8D2
:1002800030C144BF04680C60704700007047000034
:100290000023002400250026103A28BF78C1FBD88F
:1002A000520728BF30C148BF0B6070471FB502F02E
:1002B00005F81FBD10B510BD00F0A9F81146FFF7F5
:1002C000F5FF01F00FFC00F0C7F803B4FFF7F2FFF1
:1002D00003BC00F0CFF800000948804709480047F8
:1002E000FEE7FEE7FEE7FEE7FEE7FEE7FEE7FEE7E6
:1002F000FEE7FEE704480549054A064B7047000043
:10030000ED0400080D020008C8000020C806002007
:10031000C8020020C802002053EA020C00F06980E5
:100320002DE9F04B4FF00006002B1FBFB3FA83F509
:1003300003FA05F424FA05F65E4012BF1643B2FA3A
:1003400082F502FA05F4C5F120051EBF22FA05FC6C
:1003500044EA0C04203556EA044C4FEA144418BF12
:10036000641C4FF000084FF00009904271EB030C41
:1003700039D3002919BFB1FA81F701FA07F6B0FAAB
:1003800080F700FA07F6C7F120071EBF20FA07FC26
:1003900046EA0C062037B6FBF4FCA7EB0507103F36
:1003A00007F01F0BCBF120062CFA06F60CFA0BFB1C
:1003B00044BFB3460026202FA4BF5E464FF0000B7B
:1003C0005BEA060C08BF4FF0010B19EB0B0948EB79
:1003D0000608ABFB027C06FB02CC0BFB03CCC01B6C
:1003E00071EB0C01C1E70B46024641464846BDE8A9
:1003F000F08B13B5084318BF4FF0FF300146AFF341
:100400000080BDE81C4070477047704770477546D4
:1004100000F02CF8AE4605006946534620F0070070
:10042000854618B020B5FFF765FFBDE820404FF0C6
:1004300000064FF000074FF000084FF0000BAC46ED
:10044000ACE8C009ACE8C009ACE8C009ACE8C00938
:1004500021F007018D46704710B50446AFF30080C8
:100460002046BDE81040FFF730BF0000004870474D
:100470001800002001491820ABBEFEE7260002004C
:1004800070470000FFE7FEE780B540F28400C2F24B
:10049000000000F03BFD80BD80B540F28400C2F258
:1004A000000000F029FD80BD7047000080B501F01C
:1004B000D5FB80BDFFE7FEE780B540F28400C2F2C5
:1004C000000000F01BFF80BD80B540F28400C2F246
:1004D000000000F0A9FF80BDFFE7FEE770470000C5
:1004E0007047000070470000704700004EF68851CA
:1004F000CEF20001086840F47000086043F6000185
:10050000C4F20201086840F001000860FFE743F60A
:100510000000C4F202000068C0F34000012801D0CE
:10052000FFE7F4E743F60801C4F20201086820F08F
:1005300003000860FFE743F60800C4F20200006809
:100540008008800708B1FFE7F5E743F60001C4F231
:10055000020108684FF6FF72CFF6F26210400860A1
:1005600043F60801C4F202010020086043F60402C9
:10057000C4F2020243F20201C0F20301116043F629
:10058000A001C4F20201086043F60C01C4F20201AA
:100590004FF41F0008604EF60851CEF200014FF0F4
:1005A000006008607047000080B540F27900C2F238
:1005B0000000012101700020C4F2010001F0EEFCF6
:1005C00080BD0000FFE7FEE781B08DF803009DF8D5
:1005D000032043F60801C4F20201086802F00F028A
:1005E00020F0F00040EA0210086001B070470000FF
:1005F00081B08DF803009DF8032043F60801C4F292
:100600000201086802F0070220F4E05040EA82206C
:10061000086001B07047000081B08DF803009DF8BC
:10062000032043F60801C4F20201086802F0070241
:1006300020F4604040EA4230086001B0704700009A
:1006400081B08DF803009DF80300012809D1FFE770
:1006500043F6A401C4F20201086840F030000860CB
:1006600008E043F6A401C4F20201086820F030005B
:100670000860FFE701B0704782B08DF807008DF881
:1006800006109DF8070001460091042844D80099FF
:10069000DFE801F0030E1D2C37009DF8062043F61D
:1006A0000001C4F20201086862F30000086034E04F
:1006B0009DF8062043F60001C4F20201086802F02A
:1006C000010220F4803040EA0240086025E09DF8F5
:1006D000062043F60001C4F20201086802F001029C
:1006E00020F0807040EA0260086016E09DF8062065
:1006F00043F67001C4F20201086862F3000008606A
:100700000BE09DF8062043F67401C4F2020108686C
:1007100062F30000086000E0FFE702B070470000ED
:1007200082B0019000208DF80300BDF8060043F66A
:100730000001C4F202014058019901F01F01C840B4
:10074000C00720B9FFE700208DF8030003E0012077
:100750008DF80300FFE79DF8030002B0704700002A
:1007600080B584B0002003908DF80B00FFE71120C6
:10077000FFF7D6FF014600200129019008D0FFE7CE
:1007800003990020B1F5405F38BF01200190FFE7D9
:100790000198C00720B1FFE7039801300390E6E716
:1007A0001120FFF7BDFF012804D0FFE700208DF8DE
:1007B0000B0003E001208DF80B00FFE79DF80B0014
:1007C00004B080BD82B001908DF803109DF8030045
:1007D00001280FD1FFE7019800F01F02012101FA63
:1007E00002F3010C43F60002C4F2020288581843D7
:1007F00088500EE0019800F01F02012101FA02F377
:10080000010C43F60002C4F2020288589843885053
:10081000FFE702B07047000082B08DF80700ADF826
:100820000410ADF802208DF801309DF8070048B99A
:10083000FFE743F6A001C4F20201086840F48050CB
:100840000860FFE79DF8072043F60401C4F20201A7
:10085000086802F0010220F4800040EA825008603B
:10086000BDF8042008686FF35F2247F6C073984311
:1008700040EA82100860BDF80220086862F30300B5
:1008800008609DF80120086802F0070220F4E020CB
:1008900040EA0240086002B07047000043F60001E1
:1008A000C4F20201086840F001000860FFE743F667
:1008B0000000C4F202000068C0F34000012801D02B
:1008C000FFE7F4E743F60801C4F20201086820F0EC
:1008D00003000860FFE743F60800C4F20200006866
:1008E0008008800708B1FFE7F5E743F60001C4F28E
:1008F000020108684FF6FF72CFF6F26210400860FE
:1009000043F60801C4F202010020086043F6040225
:10091000C4F2020243F20201C0F20301116043F685
:10092000A001C4F20201086043F60C01C4F2020106
:100930004FF41F000860704781B08DF803009DF8E8
:10094000032043F60801C4F20201086862F30100C3
:10095000086000BF00BF00BF00BF00BF00BF00BFF6
:1009600000BF00BF00BF00BF00BF00BF00BF00BF8F
:1009700000BF00BF00BF00BF00BF01B07047000054
:1009800043F60800C4F202000068C0F3810070471B
:1009900080B5042001F074FA40F21000C2F20000A9
:1009A00000684DF68361C4F21B31A0FB0110810C7D
:1009B00040F28000C2F20000016000684FF47A71DA
:1009C000484340F27C01C2F20001086080BD000093
:1009D00083B0ADF80A0000200190FFE7BDF80A00DF
:1009E00000285FD0FFE7BDF80A00332812DBFFE7DD
:1009F00040F27C00C2F200000068322148434EF20F
:100A00001401CEF200010860BDF80A003238ADF8DA
:100A10000A0010E0BDF80A0040F27C01C2F20001B9
:100A2000096848434EF21401CEF20001086000202C
:100A3000ADF80A00FFE74EF21801CEF200010020E7
:100A400008604EF21001CEF20001086840F001008B
:100A50000860FFE74EF21000CEF20000006801903F
:100A6000FFE700209DF80410C907009031B1FFE7AF
:100A70009DF80610012088430090FFE70098C0070A
:100A80000028E7D1FFE74EF21001CEF2000108681E
:100A900020F0010008604EF21801CEF200010020A3
:100AA00008609BE703B0704782B001908DF8031097
:100AB0009DF803200199086862F30000086002B005
:100AC0007047000081B000900098B0F1805F09D9B4
:100AD000FFE7009820F0704046F20461C4F2020182
:100AE000086006E0009846F20441C4F20201086082
:100AF000FFE701B07047000083B001900020009034
:100B00000198B0F1805F07D9FFE746F20060C4F2B8
:100B100002000068009006E046F20040C4F20200C5
:100B200000680090FFE700980199084204D0FFE7B1
:100B300001208DF80B0003E000208DF80B00FFE78B
:100B40009DF80B0003B0704782B0019000910199AD
:100B500008684BF6EF72104008600098028901990E
:100B60000868104308600098427C0199086802F008
:100B7000030220F4405040EA023008600098C27B33
:100B80000199086802F0030220F4406040EA8220E4
:100B900008600098827B0199086802F0030220F443
:100BA000407040EA022008600098427B0199086882
:100BB00002F0010220F0800040EAC21008600098B4
:100BC000027B0199086802F0010220F0400040EA2F
:100BD000821008600098027C0199086802F0010206
:100BE00020F0200040EA42100860009842890199F4
:100BF00048684FF6FF7398431044486000980068B7
:100C000001998860009840680199C86002B07047F7
:100C100083B0029001918DF803209DF8030030B15C
:100C2000FFE7019A029908681043086005E0019AFD
:100C30000299086890430860FFE703B0704700001E
:100C400081B00090009843F61441C4F2010108609D
:100C500001B0704783B0029000208DF8070000902B
:100C600043F61440C4F20100006802990840009065
:100C7000009820B1FFE701208DF8070003E0002075
:100C80008DF80700FFE79DF8070003B070470000EC
:100C900083B0029001910020ADF800000198006837
:100CA000ADF80200FFE7BDF80200012862DBFFE7B4
:100CB000BDF80200C007002851D0FFE7BDF80000D2
:100CC0004100032000FA01F3029A11689943116070
:100CD00001998979BDF80020520001FA02F3029AC5
:100CE000116819431160BDF80020012101FA02F3D7
:100CF000029A51689943516001990979BDF8002021
:100D000001FA02F3029A516819435160BDF80010CC
:100D1000490000FA01F3029A9168994391600199A0
:100D2000C979BDF80020520001FA02F3029A9168D5
:100D300019439160BDF80010490000FA01F20299D0
:100D4000C8689043C86001984079BDF80010490018
:100D500000FA01F20299C8681043C860FFE7BDF8C5
:100D600002004008ADF80200BDF800000130ADF807
:100D7000000098E703B0704784B003908DF80B1023
:100D80008DF80A200020019000909DF80A109DF82F
:100D90000B2002F007029200914001919DF80B1088
:100DA000B0EBD10F15D0FFE79DF80B0000F0070066
:100DB00081000F2000FA01F20399486A90434862CB
:100DC0000398406A0199084300900098039948628B
:100DD00014E09DF80B0000F0070081000F2000FADE
:100DE00001F20399086A904308620398006A019926
:100DF00008430090009803990862FFE704B0704729
:100E000081B000900098406AC0B201B07047000005
:100E100082B001908DF803109DF80300019988625B
:100E200002B0704780B588B0079006910592ADF882
:100E30001230069800210391FFF736FE039A0698B8
:100E40000221FFF7E5FE0598079948620698079981
:100E50008A69801AB0FA80F0400900010885069876
:100E600007998969884205D1FFE70798006828300B
:100E7000029004E00798006824300290FFE702988F
:100E800007990862BDF812000799488506980799E6
:100E90002031FFF759FE0698022101220192FFF747
:100EA000B7FE01990698FFF7FFFD08B080BD00006E
:100EB00082B001908DF803108DF802209DF8030098
:100EC00060B9FFE79DF802200199086802F001026D
:100ED00020F4804040EA823008600BE09DF8022058
:100EE0000199086802F0010220F4004040EAC23093
:100EF0000860FFE702B0704780B582B001900198AA
:100F0000C16900F00DF802B080BD000080B582B06C
:100F100001900198816900F003F802B080BD0000E3
:100F200080B59CB01B901A911A9846F20841C4F201
:100F30000201884203D1FFE702201990B7E01A9816
:100F400046F21C41C4F20201884203D1FFE720208F
:100F50001890A9E01A9846F23041C4F20201884282
:100F600004D1FFE74FF4007017909AE01A9846F208
:100F70004441C4F20201884204D1FFE74FF400501B
:100F800016908BE01A9846F25841C4F2020188424A
:100F900004D1FFE74FF4003015907CE01A9846F238
:100FA0006C41C4F20201884204D1FFE74FF4001003
:100FB00014906DE01A9846F28041C4F20201884212
:100FC00004D1FFE74FF0007013905EE01A9846F2EC
:100FD0000861C4F20201884205D1FFE70220C1F294
:100FE000000012904EE01A9846F21C61C4F2020111
:100FF000884205D1FFE72020C1F2000011903EE0B9
:101000001A9846F23061C4F20201884206D1FFE725
:1010100040F20020C1F2000010902DE01A9846F234
:101020004461C4F20201884206D1FFE742F20000A7
:10103000C1F200000F901CE01A9846F25861C4F209
:101040000201884205D1FFE70020C1F202000E90A4
:101050000CE01A9946F26C62C4F202024FF0905012
:10106000914208BF4FF081500E90FFE70E980F900D
:10107000FFE70F981090FFE710981190FFE7119885
:101080001290FFE712981390FFE713981490FFE770
:1010900014981590FFE715981690FFE7169817908B
:1010A000FFE717981890FFE718981990FFE719982D
:1010B000FFF722FD002800F01E81FFE71A980221A9
:1010C0000022FFF7A5FD1A9846F20841C4F202017A
:1010D000884203D1FFE702200D90B7E01A9846F24C
:1010E0001C41C4F20201884203D1FFE720200C908A
:1010F000A9E01A9846F23041C4F20201884204D1B4
:10110000FFE74FF400700B909AE01A9846F24441C2
:10111000C4F20201884204D1FFE74FF400500A9064
:101120008BE01A9846F25841C4F20201884204D179
:10113000FFE74FF4003009907CE01A9846F26C41CA
:10114000C4F20201884204D1FFE74FF40010089076
:101150006DE01A9846F28041C4F20201884204D13F
:10116000FFE74FF0007007905EE01A9846F20861C2
:10117000C4F20201884205D1FFE70220C1F200005B
:1011800006904EE01A9846F21C61C4F202018842B1
:1011900005D1FFE72020C1F2000005903EE01A983B
:1011A00046F23061C4F20201884206D1FFE740F204
:1011B0000020C1F2000004902DE01A9846F244612C
:1011C000C4F20201884206D1FFE742F20000C1F2F8
:1011D000000003901CE01A9846F25861C4F2020124
:1011E000884205D1FFE70020C1F2020002900CE026
:1011F0001A9946F26C62C4F202024FF0905091428A
:1012000008BF4FF081500290FFE702980390FFE77C
:1012100003980490FFE704980590FFE7059806906F
:10122000FFE706980790FFE707980890FFE7089800
:101230000990FFE709980A90FFE70A980B90FFE7EB
:101240000B980C90FFE70C980D90FFE70D98FFF7B7
:1012500039FC1B9A1A9910689269891A18BF0121E2
:1012600000220092FFF724FE00991A98FFF71CFC59
:101270001B98C06801900438022805D3FFE7019845
:101280000638022834D334E01B9802891B99488918
:10129000801A48811B98408938B9FFE71B9800687D
:1012A0002021012200F000F921E01B9802891B99FE
:1012B0004868104448601B984089B0F5807F04DB83
:1012C000FFE71B99FF20088104E01B9840891B99C8
:1012D0000881FFE71B981A9942680389FFF7A2FD6E
:1012E0001B9800684021012200F0DEF8FFE701E0D2
:1012F00000E0FFE7FFE71CB080BD000080B582B0D2
:101300000190019800684FF4807100F0B7F880B147
:10131000FFE7019913200875019800684FF4807168
:1013200000F0A4F8019800688021002200F0BCF8C9
:10133000FFE7019800684FF4007100F09FF880B15A
:10134000FFE7019913200875019800684FF40071B8
:1013500000F08CF8019800688021002200F0A4F8C9
:10136000FFE7019800684FF4806100F087F880B1D2
:10137000FFE7019913200875019800684FF4806118
:1013800000F074F8019800688021002200F08CF8C9
:10139000FFE7019800684FF4006100F06FF880B13A
:1013A000FFE7019913200875019800684FF4006168
:1013B00000F05CF8019800688021002200F074F8C9
:1013C000FFE7019800684FF4805100F057F880B1B2
:1013D000FFE7019913200875019800684FF48051C8
:1013E00000F044F8019800688021002200F05CF8C9
:1013F000FFE7019800684FF4005100F03FF880B11A
:10140000FFE7019913200875019800684FF4005117
:1014100000F02CF8019800688021002200F044F8C8
:10142000FFE702B080BD000080B582B00190019856
:10143000C0680090072816D80099DFE801F004047E
:1014400008080C0C1010019800F0CEF80CE0019880
:1014500000F02AFA08E0019800F03EF804E0019854
:1014600000F0C4F900E0FFE702B080BD82B0019057
:10147000009100980199C86102B0704783B0019053
:101480000091019880690099084204D0FFE701208B
:101490008DF80B0003E000208DF80B00FFE79DF8AE
:1014A0000B0003B07047000083B0029001918DF8EB
:1014B00003209DF8030030B1FFE7019A0299086804
:1014C0001043086005E0019A02990868904308609B
:1014D000FFE703B07047000080B584B00290029827
:1014E00000681021FFF7CAFFB8B1FFE70298006853
:1014F0001021FFF7BBFF0298006820210122FFF7AF
:10150000D3FF029800F02EF90298408920B1FFE73E
:10151000029911200875FFE75EE0029800688021BB
:10152000FFF7ACFF68B3FFE7029800684021002294
:10153000FFF7BAFF02984089F0B1FFE702980190E7
:10154000006800F09BFA01460198002200F056FA6C
:101550000298008D102807D1FFE70298006800214B
:101560000122FFF7A5FC06E002980068012211465F
:10157000FFF79EFCFFE703E00D208DF80F002FE042
:1015800029E0029800682021FFF778FF10B3FFE7F9
:10159000029800682021FFF769FF029800F002F925
:1015A000029800681021FFF769FF30B1FFE7029849
:1015B00000681021FFF75AFFFFE7029800F0D2F809
:1015C00002980068F6210022FFF76EFF02990120C1
:1015D0000861FFE7FFE7FFE700208DF80F00FFE756
:1015E0009DF80F0004B080BD80B584B002900298D1
:1015F00000681021FFF742FF88B1FFE702980068FA
:101600001021FFF733FF029800F0ACF802984089F0
:1016100020B1FFE7029911200875FFE79AE00298D0
:1016200000680221FFF72AFF88B1FFE7029B1868D4
:1016300059684A1C5A600978FFF7EAFB0299488901
:1016400001384881029908890138088181E00298AF
:1016500000688021FFF712FFC0B1FFE70298008900
:1016600078B9FFE70298408958B1FFE702980190E6
:10167000006800F003FA01460198002200F0BEF96C
:1016800003E00D208DF80F0068E061E0029800682B
:101690000421FFF7F3FE90B1FFE702980068FFF71F
:1016A000AFFB029B59684A1C5A600870029948892E
:1016B00001384881029908890138088147E0029879
:1016C00000684021FFF7DAFEB0B1FFE702984089D9
:1016D00068B9FFE7029800684068400EC00728B963
:1016E000FFE70298006800F0BFF9FFE703E00E2073
:1016F0008DF80F0032E029E0029800682021FFF702
:10170000BDFE10B3FFE7029800682021FFF7AEFE90
:10171000029800F047F8029800681021FFF7AEFE2B
:1017200030B1FFE7029800681021FFF79FFEFFE746
:10173000029800F017F802980068F6210022FFF7DF
:10174000B3FE029901200861FFE7FFE7FFE7FFE72B
:10175000FFE7FFE700208DF80F00FFE79DF80F007F
:1017600004B080BD80B582B001900198006802216C
:10177000FFF784FE28B1FFE7019801680020886226
:10178000FFE7019800680121FFF778FE38B9FFE70D
:1017900001980168886940F001008861FFE702B0A4
:1017A00080BD000081B0009000980168486840F258
:1017B000FF329043486000980168486820F48050E8
:1017C000486000980168486820F47F0048600098ED
:1017D0000168486820F08070486000980168486897
:1017E00020F48060486001B07047000080B582B08E
:1017F0000190019800681021FFF740FE30B1FFE72B
:10180000019800681021FFF731FE49E00198006857
:101810000821FFF733FE30B1FFE701980068082187
:10182000FFF724FE3BE0019800682021FFF726FE29
:10183000A0B3FFE7019800682021FFF717FE019889
:101840000068FE210022FFF72FFE0198FFF7AAFF94
:101850000198FFF787FF019800680421FFF70EFE4B
:10186000C0B1FFE701980068FFF7CAFA019B596809
:101870004A1C5A60087001980089012809DBFFE7BB
:1018800001994889013848810199088901380881FE
:10189000FFE7FFE7019901200861FFE7FFE7FFE7A6
:1018A000002002B080BD000080B582B00190019898
:1018B00000681021FFF7E2FDA0B1FFE70198408921
:1018C00048B9FFE70198FFF74DFF01980068102124
:1018D000FFF7CCFD05E0019800681021FFF7C6FD79
:1018E000FFE788E0019800680821FFF7C7FD30B1E5
:1018F000FFE7019800680821FFF7B8FD7AE001983A
:1019000000680221FFF7BAFDB8B1FFE701984089EE
:10191000012811DBFFE7019A5068411C51600078F3
:10192000019909688862019908890138088101993B
:10193000488901384881FFE75BE00198006804218D
:10194000FFF79CFDC0B1FFE701984089012812DB39
:10195000FFE701980068FFF753FA019B59684A1C9A
:101960005A600870019948890138488101990889AD
:1019700001380881FFE73BE0019800682021FFF76C
:101980007DFDA0B3FFE7019800682021FFF76EFD01
:1019900001980068FE210022FFF786FD0198FFF7FD
:1019A00001FF0198FFF7DEFE019800680421FFF7B0
:1019B00065FDC0B1FFE701980068FFF721FA019BC0
:1019C00059684A1C5A60087001980089012809DB8F
:1019D000FFE7019948890138488101990889013850
:1019E0000881FFE7FFE7019901200861FFE7FFE7B2
:1019F000FFE7FFE7FFE7002002B080BD80B584B0BD
:101A00000390ADF80A10ADF8082003984089B0F5AE
:101A1000807F13DBFFE70399FF200881039A10689A
:101A2000BDF80A101289BDF80830EC46CCF8003039
:101A3000D2B24FF0807300F029F813E00398408988
:101A400003990881039A1068BDF80A101289BDF83D
:101A50000830EC46CCF80030D2B24FF0007300F002
:101A600015F8FFE704B080BD81B000900099486888
:101A700040F48040486001B07047000081B00090A1
:101A8000009840686FF39F2001B0704780B585B023
:101A900084460798CDF810C0ADF80E108DF80D20D3
:101AA0000293ADF80600049840680090009849F64B
:101AB0000001CFF6004108400090BDF80E000299E9
:101AC0000843BDF8061001430098084300909DF8B4
:101AD0000D10009840EA0140009000980499486079
:101AE00005B080BD80B590B0002006900F9000F04A
:101AF000C7F8FEF74DFF0120C0F2300001210C9124
:101B0000FEF760FE0C990120C0F24000FEF75AFE7D
:101B100006980C998DF83B10022205928DF83A2018
:101B20008DF838000D918DF8390040F20040C4F274
:101B3000020004900DA9FFF7ABF80498059A0699E6
:101B4000FFF71AF940F27800C2F20000089001781D
:101B500040F20000C2F20000099030F8111040F28B
:101B60000040C4F200000B9040F21F1200F0A4F9F4
:101B70000B980C9900F0F2F906990B9800F0DCF93B
:101B800040F2BA00C2F20000079000F069FB069B29
:101B9000079A0B980C994FF0060C82F800C053700E
:101BA000D170517104210A9100F058FA089B099AEA
:101BB0000A990B981B7832F81320520800F08EF91E
:101BC0000A990B980C9A00F0F3F90B980C9900F015
:101BD0005BFB0B980C9900F0D3F9FFE740F2004053
:101BE000C4F200000390012100F0CAF94FF47A70AA
:101BF000FEF7EEFE0398002100F0C2F940F27800F3
:101C0000C2F200000178013101700078082802D189
:101C1000FFE7FFE7FEE740F27800C2F20000009025
:101C2000017840F20000C2F20000019030F811107B
:101C300040F20040C4F20000029000F037FB009A2E
:101C400001990298127831F812104A08042100F024
:101C500045F94FF4FA70FEF7BBFEBFE780B50820E8
:101C6000FEF7F8FF50B1FFE740F2B801C2F2000101
:101C7000012008800820FEF7E3FFFFE780BD000099
:101C800080B584B0FEF70AFE1C20C0F2400001219E
:101C90000391FEF797FD039947F21002C4F2000288
:101CA000106861F30200106043F66042C4F2020261
:101CB000106861F3010010600846FEF7DDFCFFE7E5
:101CC000FEF74EFD08B9FFE7FAE7902101220292E4
:101CD000022301931046FEF79FFD01980299FEF73B
:101CE000CBFCFFE71920FEF71BFD012801D0FFE721
:101CF000F8E70020FEF768FC04200090FEF78CFC5B
:101D00000098FEF775FC0120FEF79AFC0220FEF712
:101D100013FEFFE7FEF734FE022801D0FFE7F9E7E4
:101D20000020FEF78DFC00F003F804B080BD000039
:101D300080B58AB000200990089007900690059021
:101D400004900390FEF71CFE8DF80B009DF80B002D
:101D50000146019140B1FFE7019801282BD0FFE730
:101D60000198022831D068E043F6A000C4F20200D6
:101D70000068800BC00798B1FFE743F6A000C4F2EB
:101D800002000068000BC00750B1FFE740F21001ED
:101D9000C2F2000146F60040C0F2DC20086009E013
:101DA00040F21001C2F2000141F20020C0F27A00BC
:101DB0000860FFE74BE040F21001C2F2000141F27F
:101DC0000020C0F27A00086041E043F60400C4F24B
:101DD00002000168C1F3805106910168C1F38811C6
:101DE0000991016801F00F0108910068C0F30241F8
:101DF00042F2D620C0F60000405C0790069830B949
:101E0000FFE741F20020C0F27A00059005E041F2C0
:101E10000020C0F27A000590FFE705980999A0FB21
:101E20000101089A079B5A430023FEF775FA40F216
:101E30001001C2F20001086009E040F21001C2F294
:101E4000000141F20020C0F27A000860FFE743F68B
:101E50000800C4F202000068C0F303100490049963
:101E600042F2DC20C0F60000405C039040F210011A
:101E7000C2F200010868039AD04008600AB080BD31
:101E800081B08DF803009DF80300042809D1FFE715
:101E90004EF21001CEF20001086840F00400086024
:101EA00008E04EF21001CEF20001086820F00400B4
:101EB0000860FFE701B0704783B002900191009283
:101EC00001980299C862009802998862029948694B
:101ED00040F00100486103B07047000085B00490F5
:101EE0008DF80F1002929DF80F00ADF80600BDF8B6
:101EF00006000146009107281AD80099DFE801F092
:101F0000041808180C18101402980499486310E07B
:101F10000298049988630CE002980499C86308E069
:101F200002980499086404E002980499486700E064
:101F3000FFE705B07047000082B001908DF80310F4
:101F40009DF803200199086802F0030220F4407014
:101F500040EA0220086002B07047000082B00190A1
:101F60008DF803109DF803200199086802F007021C
:101F700020F0700040EA0210086002B070470000D4
:101F800082B001908DF803109DF803200199086834
:101F900062F30000086002B07047000082B0019058
:101FA00000910098C0430199086102B07047000099
:101FB00083B002908DF807108DF806209DF8070079
:101FC000ADF80400BDF8040001460091072842D88E
:101FD0000099DFE801F0044010401C4028349DF8CF
:101FE00006200299886902F0010220F0080040EA08
:101FF000C200886130E09DF806200299886902F0ED
:10200000010220F4006040EAC220886124E09DF8CB
:1020100006200299C86902F0010220F0080040EA97
:10202000C200C86118E09DF806200299C86902F054
:10203000010220F4006040EAC220C8610CE09DF873
:1020400006200299086F02F0010220F0080040EA21
:10205000C200086700E0FFE703B0704787B0069052
:102060008DF8171004920020ADF80E00ADF80C00AA
:10207000ADF80A009DF817000830ADF808009DF88B
:1020800017000930ADF8060004984078BDF8081034
:102090008840ADF80E0004988078BDF8061088409E
:1020A000ADF80C00BDF80610012000FA01F3069A05
:1020B000516899435160BDF80C30069A5168194334
:1020C0005160BDF8081000FA01F206994868904383
:1020D0004860BDF80E2006994868104348609DF896
:1020E0001700ADF80A00BDF80A0001460091072864
:1020F00042D80099DFE801F0044010401C40283429
:10210000049802780699886902F0070220F07000AE
:1021100040EA0210886130E00498027806998869E4
:1021200002F0070220F4E04040EA0230886124E037
:10213000049802780699C86902F0070220F070003E
:1021400040EA0210C86118E0049802780699C8694C
:1021500002F0070220F4E04040EA0230C8610CE0DF
:10216000049802780699086F02F0070220F07000C8
:1021700040EA0210086700E0FFE79DF81700400002
:102180000130ADF808009DF81710032000EB410066
:10219000ADF806000498C078BDF808108840ADF886
:1021A0000E0004980079BDF806108840ADF80C00C8
:1021B000BDF80610012000FA01F3069A116A99434E
:1021C0001162BDF80C30069A116A19431162BDF80C
:1021D000081000FA01F3069A116A99431162BDF8DA
:1021E0000E30069A116A194311629DF817104900C2
:1021F000ADF808109DF81710022202EB4101ADF86E
:102200000610049949799DF817305B009940ADF8A4
:102210000E10049989799DF8173002EB4302914022
:10222000ADF80C10BDF8061000FA01F3069A116A19
:1022300099431162BDF80C30069A116A1943116274
:10224000BDF8081000FA01F20699086A9043086286
:10225000BDF80E200699086A1043086207B070475F
:1022600081B0009000990020087000994870009992
:1022700088700099C8700099087100994871009998
:10228000887101B07047000082B001908DF8031092
:102290009DF803200199086802F0010220F08000F7
:1022A00040EAC210086002B07047000082B001909E
:1022B000009100980199C86202B07047F1EE100ACF
:1022C0004FF6FF71C0F2C03120EA010040F04070CB
:1022D000E1EE100A7047010204081020000000001F
:1022E000000000000102030406070809102300088B
:1022F00000000020180000007002000828230008D9
:1023000018000020B0060000900200080000000045
:102310007607A606EC059705FC046F04F403BB03DF
:0823200000127A000000000029
:040000050800020DE0
:00000001FF
